{
  "_format": "hh3-artifact-1",
  "contractName": "CredentialRegistry",
  "sourceName": "contracts/CredentialRegistry.sol",
  "abi": [
    {
      "inputs": [],
      "stateMutability": "nonpayable",
      "type": "constructor"
    },
    {
      "inputs": [],
      "name": "AccessControlBadConfirmation",
      "type": "error"
    },
    {
      "inputs": [
        {
          "internalType": "address",
          "name": "account",
          "type": "address"
        },
        {
          "internalType": "bytes32",
          "name": "neededRole",
          "type": "bytes32"
        }
      ],
      "name": "AccessControlUnauthorizedAccount",
      "type": "error"
    },
    {
      "anonymous": false,
      "inputs": [
        {
          "indexed": true,
          "internalType": "bytes32",
          "name": "credId",
          "type": "bytes32"
        },
        {
          "indexed": true,
          "internalType": "address",
          "name": "issuer",
          "type": "address"
        },
        {
          "indexed": true,
          "internalType": "address",
          "name": "holder",
          "type": "address"
        },
        {
          "indexed": false,
          "internalType": "uint256",
          "name": "validUntil",
          "type": "uint256"
        }
      ],
      "name": "CredentialIssued",
      "type": "event"
    },
    {
      "anonymous": false,
      "inputs": [
        {
          "indexed": true,
          "internalType": "bytes32",
          "name": "credId",
          "type": "bytes32"
        },
        {
          "indexed": true,
          "internalType": "address",
          "name": "revokedBy",
          "type": "address"
        }
      ],
      "name": "CredentialRevoked",
      "type": "event"
    },
    {
      "anonymous": false,
      "inputs": [
        {
          "indexed": true,
          "internalType": "address",
          "name": "issuer",
          "type": "address"
        }
      ],
      "name": "IssuerAdded",
      "type": "event"
    },
    {
      "anonymous": false,
      "inputs": [
        {
          "indexed": true,
          "internalType": "address",
          "name": "issuer",
          "type": "address"
        }
      ],
      "name": "IssuerRemoved",
      "type": "event"
    },
    {
      "anonymous": false,
      "inputs": [
        {
          "indexed": true,
          "internalType": "bytes32",
          "name": "role",
          "type": "bytes32"
        },
        {
          "indexed": true,
          "internalType": "bytes32",
          "name": "previousAdminRole",
          "type": "bytes32"
        },
        {
          "indexed": true,
          "internalType": "bytes32",
          "name": "newAdminRole",
          "type": "bytes32"
        }
      ],
      "name": "RoleAdminChanged",
      "type": "event"
    },
    {
      "anonymous": false,
      "inputs": [
        {
          "indexed": true,
          "internalType": "bytes32",
          "name": "role",
          "type": "bytes32"
        },
        {
          "indexed": true,
          "internalType": "address",
          "name": "account",
          "type": "address"
        },
        {
          "indexed": true,
          "internalType": "address",
          "name": "sender",
          "type": "address"
        }
      ],
      "name": "RoleGranted",
      "type": "event"
    },
    {
      "anonymous": false,
      "inputs": [
        {
          "indexed": true,
          "internalType": "bytes32",
          "name": "role",
          "type": "bytes32"
        },
        {
          "indexed": true,
          "internalType": "address",
          "name": "account",
          "type": "address"
        },
        {
          "indexed": true,
          "internalType": "address",
          "name": "sender",
          "type": "address"
        }
      ],
      "name": "RoleRevoked",
      "type": "event"
    },
    {
      "inputs": [],
      "name": "DEFAULT_ADMIN_ROLE",
      "outputs": [
        {
          "internalType": "bytes32",
          "name": "",
          "type": "bytes32"
        }
      ],
      "stateMutability": "view",
      "type": "function"
    },
    {
      "inputs": [],
      "name": "ISSUER_ROLE",
      "outputs": [
        {
          "internalType": "bytes32",
          "name": "",
          "type": "bytes32"
        }
      ],
      "stateMutability": "view",
      "type": "function"
    },
    {
      "inputs": [
        {
          "internalType": "address",
          "name": "_issuer",
          "type": "address"
        }
      ],
      "name": "addIssuer",
      "outputs": [],
      "stateMutability": "nonpayable",
      "type": "function"
    },
    {
      "inputs": [
        {
          "internalType": "bytes32",
          "name": "",
          "type": "bytes32"
        }
      ],
      "name": "credentials",
      "outputs": [
        {
          "internalType": "string",
          "name": "ipfsHash",
          "type": "string"
        },
        {
          "internalType": "address",
          "name": "issuer",
          "type": "address"
        },
        {
          "internalType": "address",
          "name": "holder",
          "type": "address"
        },
        {
          "internalType": "uint256",
          "name": "issuanceDate",
          "type": "uint256"
        },
        {
          "internalType": "uint256",
          "name": "validUntil",
          "type": "uint256"
        },
        {
          "internalType": "bool",
          "name": "isRevoked",
          "type": "bool"
        }
      ],
      "stateMutability": "view",
      "type": "function"
    },
    {
      "inputs": [
        {
          "internalType": "bytes32",
          "name": "_credId",
          "type": "bytes32"
        }
      ],
      "name": "fetchCredential",
      "outputs": [
        {
          "internalType": "string",
          "name": "",
          "type": "string"
        },
        {
          "internalType": "address",
          "name": "",
          "type": "address"
        },
        {
          "internalType": "address",
          "name": "",
          "type": "address"
        },
        {
          "internalType": "bool",
          "name": "",
          "type": "bool"
        },
        {
          "internalType": "uint256",
          "name": "",
          "type": "uint256"
        }
      ],
      "stateMutability": "view",
      "type": "function"
    },
    {
      "inputs": [],
      "name": "getAllIssuers",
      "outputs": [
        {
          "internalType": "address[]",
          "name": "",
          "type": "address[]"
        }
      ],
      "stateMutability": "view",
      "type": "function"
    },
    {
      "inputs": [
        {
          "internalType": "address",
          "name": "_issuer",
          "type": "address"
        }
      ],
      "name": "getIssuedCredentials",
      "outputs": [
        {
          "internalType": "bytes32[]",
          "name": "",
          "type": "bytes32[]"
        }
      ],
      "stateMutability": "view",
      "type": "function"
    },
    {
      "inputs": [],
      "name": "getMyCredentials",
      "outputs": [
        {
          "internalType": "bytes32[]",
          "name": "",
          "type": "bytes32[]"
        }
      ],
      "stateMutability": "view",
      "type": "function"
    },
    {
      "inputs": [
        {
          "internalType": "bytes32",
          "name": "role",
          "type": "bytes32"
        }
      ],
      "name": "getRoleAdmin",
      "outputs": [
        {
          "internalType": "bytes32",
          "name": "",
          "type": "bytes32"
        }
      ],
      "stateMutability": "view",
      "type": "function"
    },
    {
      "inputs": [
        {
          "internalType": "bytes32",
          "name": "role",
          "type": "bytes32"
        },
        {
          "internalType": "address",
          "name": "account",
          "type": "address"
        }
      ],
      "name": "grantRole",
      "outputs": [],
      "stateMutability": "nonpayable",
      "type": "function"
    },
    {
      "inputs": [
        {
          "internalType": "bytes32",
          "name": "role",
          "type": "bytes32"
        },
        {
          "internalType": "address",
          "name": "account",
          "type": "address"
        }
      ],
      "name": "hasRole",
      "outputs": [
        {
          "internalType": "bool",
          "name": "",
          "type": "bool"
        }
      ],
      "stateMutability": "view",
      "type": "function"
    },
    {
      "inputs": [
        {
          "internalType": "address",
          "name": "",
          "type": "address"
        }
      ],
      "name": "isIssuer",
      "outputs": [
        {
          "internalType": "bool",
          "name": "",
          "type": "bool"
        }
      ],
      "stateMutability": "view",
      "type": "function"
    },
    {
      "inputs": [
        {
          "internalType": "address",
          "name": "_holder",
          "type": "address"
        },
        {
          "internalType": "string",
          "name": "_ipfsHash",
          "type": "string"
        },
        {
          "internalType": "uint256",
          "name": "_validUntil",
          "type": "uint256"
        }
      ],
      "name": "issueCredential",
      "outputs": [],
      "stateMutability": "nonpayable",
      "type": "function"
    },
    {
      "inputs": [
        {
          "internalType": "uint256",
          "name": "",
          "type": "uint256"
        }
      ],
      "name": "issuerList",
      "outputs": [
        {
          "internalType": "address",
          "name": "",
          "type": "address"
        }
      ],
      "stateMutability": "view",
      "type": "function"
    },
    {
      "inputs": [
        {
          "internalType": "address",
          "name": "_issuer",
          "type": "address"
        }
      ],
      "name": "removeIssuer",
      "outputs": [],
      "stateMutability": "nonpayable",
      "type": "function"
    },
    {
      "inputs": [
        {
          "internalType": "bytes32",
          "name": "role",
          "type": "bytes32"
        },
        {
          "internalType": "address",
          "name": "callerConfirmation",
          "type": "address"
        }
      ],
      "name": "renounceRole",
      "outputs": [],
      "stateMutability": "nonpayable",
      "type": "function"
    },
    {
      "inputs": [
        {
          "internalType": "bytes32",
          "name": "credId",
          "type": "bytes32"
        }
      ],
      "name": "revokeCredential",
      "outputs": [],
      "stateMutability": "nonpayable",
      "type": "function"
    },
    {
      "inputs": [
        {
          "internalType": "bytes32",
          "name": "role",
          "type": "bytes32"
        },
        {
          "internalType": "address",
          "name": "account",
          "type": "address"
        }
      ],
      "name": "revokeRole",
      "outputs": [],
      "stateMutability": "nonpayable",
      "type": "function"
    },
    {
      "inputs": [
        {
          "internalType": "bytes4",
          "name": "interfaceId",
          "type": "bytes4"
        }
      ],
      "name": "supportsInterface",
      "outputs": [
        {
          "internalType": "bool",
          "name": "",
          "type": "bool"
        }
      ],
      "stateMutability": "view",
      "type": "function"
    }
  ],
  "bytecode": "0x608060405234801561000f575f5ffd5b5061001a5f336100a6565b506100457f114e74f6ea3bd819998f78687bfcb11b140da08e9b7d222fa9c1f1ba1f2aa122336100a6565b50335f818152600460205260408120805460ff191660019081179091556005805491820181559091527f036b6384b5eca791c62761152d0c79bb0604c104a5fb6f4eb0703f3154bb3db00180546001600160a01b031916909117905561014f565b5f828152602081815260408083206001600160a01b038516845290915281205460ff16610146575f838152602081815260408083206001600160a01b03861684529091529020805460ff191660011790556100fe3390565b6001600160a01b0316826001600160a01b0316847f2f8788117e7eff1d82e926ec794901d17c78024a50270940304540a733656f0d60405160405180910390a4506001610149565b505f5b92915050565b6112988061015c5f395ff3fe608060405234801561000f575f5ffd5b506004361061011c575f3560e01c806382aefa24116100a9578063ab22845b1161006e578063ab22845b1461028e578063bbfbb2ec146102b2578063ca6eec78146102c7578063d547741f146102da578063ff2a9af9146102ed575f5ffd5b806382aefa241461022b578063877b9a671461023f5780638e9841d01461026157806391d1485414610274578063a217fddf14610287575f5ffd5b80632f2ff15d116100ef5780632f2ff15d146101b257806336568abe146101c557806347bc7093146101d85780634c32c35c146101eb57806353be56be14610200575f5ffd5b806301ffc9a71461012057806320694db014610148578063248a9ca31461015d578063299d03481461018d575b5f5ffd5b61013361012e366004610e01565b610300565b60405190151581526020015b60405180910390f35b61015b610156366004610e4a565b610336565b005b61017f61016b366004610e63565b5f9081526020819052604090206001015490565b60405190815260200161013f565b6101a061019b366004610e63565b610412565b60405161013f96959493929190610ea8565b61015b6101c0366004610ef1565b6104dc565b61015b6101d3366004610ef1565b610506565b61015b6101e6366004610e4a565b61053e565b6101f36106cc565b60405161013f9190610f1b565b61021361020e366004610e63565b61072c565b6040516001600160a01b03909116815260200161013f565b61017f5f5160206112435f395f51905f5281565b61013361024d366004610e4a565b60046020525f908152604090205460ff1681565b61015b61026f366004610f7a565b610754565b610133610282366004610ef1565b610950565b61017f5f81565b6102a161029c366004610e63565b610978565b60405161013f959493929190611047565b6102ba610ac1565b60405161013f9190611086565b61015b6102d5366004610e63565b610b1e565b61015b6102e8366004610ef1565b610c36565b6102ba6102fb366004610e4a565b610c5a565b5f6001600160e01b03198216637965db0b60e01b148061033057506301ffc9a760e01b6001600160e01b03198316145b92915050565b5f61034081610cc3565b6103575f5160206112435f395f51905f52836104dc565b6001600160a01b0382165f9081526004602052604090205460ff166103db576001600160a01b0382165f818152600460205260408120805460ff191660019081179091556005805491820181559091527f036b6384b5eca791c62761152d0c79bb0604c104a5fb6f4eb0703f3154bb3db00180546001600160a01b03191690911790555b6040516001600160a01b038316907f05e7c881d716bee8cb7ed92293133ba156704252439e5c502c277448f04e20c2905f90a25050565b60016020525f908152604090208054819061042c906110bd565b80601f0160208091040260200160405190810160405280929190818152602001828054610458906110bd565b80156104a35780601f1061047a576101008083540402835291602001916104a3565b820191905f5260205f20905b81548152906001019060200180831161048657829003601f168201915b505050600184015460028501546003860154600487015460059097015495966001600160a01b0393841696929093169450925060ff1686565b5f828152602081905260409020600101546104f681610cc3565b6105008383610cd0565b50505050565b6001600160a01b038116331461052f5760405163334bd91960e11b815260040160405180910390fd5b6105398282610d5f565b505050565b5f61054881610cc3565b61055f5f5160206112435f395f51905f5283610c36565b6001600160a01b0382165f9081526004602052604090205460ff16156106c8576001600160a01b0382165f908152600460205260408120805460ff191690555b60055481101561069357826001600160a01b0316600582815481106105c6576105c66110f5565b5f918252602090912001546001600160a01b03160361068b57600580546105ef90600190611109565b815481106105ff576105ff6110f5565b5f91825260209091200154600580546001600160a01b03909216918390811061062a5761062a6110f5565b905f5260205f20015f6101000a8154816001600160a01b0302191690836001600160a01b03160217905550600580548061066657610666611128565b5f8281526020902081015f1990810180546001600160a01b0319169055019055610693565b60010161059f565b506040516001600160a01b038316907faf66545c919a3be306ee446d8f42a9558b5b022620df880517bc9593ec0f2d52905f90a25b5050565b6060600580548060200260200160405190810160405280929190818152602001828054801561072257602002820191905f5260205f20905b81546001600160a01b03168152600190910190602001808311610704575b5050505050905090565b6005818154811061073b575f80fd5b5f918252602090912001546001600160a01b0316905081565b5f5160206112435f395f51905f5261076b81610cc3565b6040805142602082018190526001600160a01b038716928201929092523360608201525f9060800160408051601f1981840301815291815281516020928301205f81815260019093529120600301549091501561080f5760405162461bcd60e51b815260206004820152601960248201527f43726564656e7469616c20616c7265616479206578697374730000000000000060448201526064015b60405180910390fd5b6040805160c081018252868152336020808301919091526001600160a01b0389168284015260608201859052608082018790525f60a08301819052848152600190915291909120815181906108649082611187565b50602082810151600183810180546001600160a01b03199081166001600160a01b0394851617909155604080870151600280880180549094169186169190911790925560608701516003808801919091556080880151600488015560a0909701516005909601805460ff191696151596909617909555918b165f8181529284528483208054808401825590845284842001879055338084529584528483208054928301815583529183902001859055915187815291929184917fc6f6a1702b44006e35bd83045fd933510f3a924c1bb3877bff1061c14eb1c6be910160405180910390a4505050505050565b5f918252602082815260408084206001600160a01b0393909316845291905290205460ff1690565b60605f5f5f5f5f60015f8881526020019081526020015f206040518060c00160405290815f820180546109aa906110bd565b80601f01602080910402602001604051908101604052809291908181526020018280546109d6906110bd565b8015610a215780601f106109f857610100808354040283529160200191610a21565b820191905f5260205f20905b815481529060010190602001808311610a0457829003601f168201915b505050918352505060018201546001600160a01b039081166020830152600283015416604082015260038201546060820152600482015460808083019190915260059092015460ff16151560a0909101528101519091505f9015801590610a8b5750816080015142115b9050815f0151826020015183604001518460a0015180610aa85750835b608090950151929b919a50985092965094509092505050565b335f9081526002602090815260409182902080548351818402810184019094528084526060939283018282801561072257602002820191905f5260205f20905b815481526020019060010190808311610b01575050505050905090565b5f5160206112435f395f51905f52610b3581610cc3565b5f8281526001602052604081206003810154909103610b965760405162461bcd60e51b815260206004820152601960248201527f43726564656e7469616c20646f6573206e6f74206578697374000000000000006044820152606401610806565b60018101546001600160a01b0316331480610bb65750610bb65f33610950565b610bf65760405162461bcd60e51b815260206004820152601160248201527027b7363c9034b9b9bab2b917b0b236b4b760791b6044820152606401610806565b60058101805460ff19166001179055604051339084907fd3196f598a360c115a1de20d5a58021203793f1bf1a08efe55ee14545779606d905f90a3505050565b5f82815260208190526040902060010154610c5081610cc3565b6105008383610d5f565b6001600160a01b0381165f90815260036020908152604091829020805483518184028101840190945280845260609392830182828015610cb757602002820191905f5260205f20905b815481526020019060010190808311610ca3575b50505050509050919050565b610ccd8133610dc8565b50565b5f610cdb8383610950565b610d58575f838152602081815260408083206001600160a01b03861684529091529020805460ff19166001179055610d103390565b6001600160a01b0316826001600160a01b0316847f2f8788117e7eff1d82e926ec794901d17c78024a50270940304540a733656f0d60405160405180910390a4506001610330565b505f610330565b5f610d6a8383610950565b15610d58575f838152602081815260408083206001600160a01b0386168085529252808320805460ff1916905551339286917ff6391f5c32d9c69d2a47ea670b442974b53935d1edc7fd64eb21e047a839171b9190a4506001610330565b610dd28282610950565b6106c85760405163e2517d3f60e01b81526001600160a01b038216600482015260248101839052604401610806565b5f60208284031215610e11575f5ffd5b81356001600160e01b031981168114610e28575f5ffd5b9392505050565b80356001600160a01b0381168114610e45575f5ffd5b919050565b5f60208284031215610e5a575f5ffd5b610e2882610e2f565b5f60208284031215610e73575f5ffd5b5035919050565b5f81518084528060208401602086015e5f602082860101526020601f19601f83011685010191505092915050565b60c081525f610eba60c0830189610e7a565b6001600160a01b03978816602084015295909616604082015260608101939093526080830191909152151560a09091015292915050565b5f5f60408385031215610f02575f5ffd5b82359150610f1260208401610e2f565b90509250929050565b602080825282518282018190525f918401906040840190835b81811015610f5b5783516001600160a01b0316835260209384019390920191600101610f34565b509095945050505050565b634e487b7160e01b5f52604160045260245ffd5b5f5f5f60608486031215610f8c575f5ffd5b610f9584610e2f565b9250602084013567ffffffffffffffff811115610fb0575f5ffd5b8401601f81018613610fc0575f5ffd5b803567ffffffffffffffff811115610fda57610fda610f66565b604051601f8201601f19908116603f0116810167ffffffffffffffff8111828210171561100957611009610f66565b604052818152828201602001881015611020575f5ffd5b816020840160208301375f9181016020019190915293969395505050506040919091013590565b60a081525f61105960a0830188610e7a565b6001600160a01b039687166020840152949095166040820152911515606083015260809091015292915050565b602080825282518282018190525f918401906040840190835b81811015610f5b57835183526020938401939092019160010161109f565b600181811c908216806110d157607f821691505b6020821081036110ef57634e487b7160e01b5f52602260045260245ffd5b50919050565b634e487b7160e01b5f52603260045260245ffd5b8181038181111561033057634e487b7160e01b5f52601160045260245ffd5b634e487b7160e01b5f52603160045260245ffd5b601f82111561053957805f5260205f20601f840160051c810160208510156111615750805b601f840160051c820191505b81811015611180575f815560010161116d565b5050505050565b815167ffffffffffffffff8111156111a1576111a1610f66565b6111b5816111af84546110bd565b8461113c565b6020601f8211600181146111e7575f83156111d05750848201515b5f19600385901b1c1916600184901b178455611180565b5f84815260208120601f198516915b8281101561121657878501518255602094850194600190920191016111f6565b508482101561123357868401515f19600387901b60f8161c191681555b50505050600190811b0190555056fe114e74f6ea3bd819998f78687bfcb11b140da08e9b7d222fa9c1f1ba1f2aa122a264697066735822122081981d72523e52c3c04a79df7cb03f9856a1060d356e963c58fbf5a8eff3861664736f6c634300081c0033",
  "linkReferences": {},
  "deployedLinkReferences": {},
  "immutableReferences": {},
  "inputSourceName": "project/contracts/CredentialRegistry.sol",
  "buildInfoId": "solc-0_8_28-d175cc008606c522783d5d8e4be50243d7e02ef2"
}