{
  "_format": "hh3-artifact-1",
  "contractName": "CredentialRegistry",
  "sourceName": "contracts/CredentialRegistry.sol",
  "abi": [
    {
      "inputs": [
        {
          "internalType": "address",
          "name": "_verifierAddress",
          "type": "address"
        },
        {
          "internalType": "address",
          "name": "_cgpaVerifierAddress",
          "type": "address"
        }
      ],
      "stateMutability": "nonpayable",
      "type": "constructor"
    },
    {
      "inputs": [],
      "name": "AccessControlBadConfirmation",
      "type": "error"
    },
    {
      "inputs": [
        {
          "internalType": "address",
          "name": "account",
          "type": "address"
        },
        {
          "internalType": "bytes32",
          "name": "neededRole",
          "type": "bytes32"
        }
      ],
      "name": "AccessControlUnauthorizedAccount",
      "type": "error"
    },
    {
      "anonymous": false,
      "inputs": [
        {
          "indexed": true,
          "internalType": "bytes32",
          "name": "credId",
          "type": "bytes32"
        },
        {
          "indexed": true,
          "internalType": "address",
          "name": "issuer",
          "type": "address"
        },
        {
          "indexed": true,
          "internalType": "address",
          "name": "holder",
          "type": "address"
        },
        {
          "indexed": false,
          "internalType": "uint256",
          "name": "validUntil",
          "type": "uint256"
        }
      ],
      "name": "CredentialIssued",
      "type": "event"
    },
    {
      "anonymous": false,
      "inputs": [
        {
          "indexed": true,
          "internalType": "bytes32",
          "name": "credId",
          "type": "bytes32"
        },
        {
          "indexed": true,
          "internalType": "address",
          "name": "revokedBy",
          "type": "address"
        }
      ],
      "name": "CredentialRevoked",
      "type": "event"
    },
    {
      "anonymous": false,
      "inputs": [
        {
          "indexed": true,
          "internalType": "address",
          "name": "issuer",
          "type": "address"
        }
      ],
      "name": "IssuerAdded",
      "type": "event"
    },
    {
      "anonymous": false,
      "inputs": [
        {
          "indexed": true,
          "internalType": "address",
          "name": "issuer",
          "type": "address"
        }
      ],
      "name": "IssuerRemoved",
      "type": "event"
    },
    {
      "anonymous": false,
      "inputs": [
        {
          "indexed": true,
          "internalType": "bytes32",
          "name": "credId",
          "type": "bytes32"
        },
        {
          "indexed": false,
          "internalType": "bool",
          "name": "success",
          "type": "bool"
        }
      ],
      "name": "ProofVerified",
      "type": "event"
    },
    {
      "anonymous": false,
      "inputs": [
        {
          "indexed": true,
          "internalType": "bytes32",
          "name": "role",
          "type": "bytes32"
        },
        {
          "indexed": true,
          "internalType": "bytes32",
          "name": "previousAdminRole",
          "type": "bytes32"
        },
        {
          "indexed": true,
          "internalType": "bytes32",
          "name": "newAdminRole",
          "type": "bytes32"
        }
      ],
      "name": "RoleAdminChanged",
      "type": "event"
    },
    {
      "anonymous": false,
      "inputs": [
        {
          "indexed": true,
          "internalType": "bytes32",
          "name": "role",
          "type": "bytes32"
        },
        {
          "indexed": true,
          "internalType": "address",
          "name": "account",
          "type": "address"
        },
        {
          "indexed": true,
          "internalType": "address",
          "name": "sender",
          "type": "address"
        }
      ],
      "name": "RoleGranted",
      "type": "event"
    },
    {
      "anonymous": false,
      "inputs": [
        {
          "indexed": true,
          "internalType": "bytes32",
          "name": "role",
          "type": "bytes32"
        },
        {
          "indexed": true,
          "internalType": "address",
          "name": "account",
          "type": "address"
        },
        {
          "indexed": true,
          "internalType": "address",
          "name": "sender",
          "type": "address"
        }
      ],
      "name": "RoleRevoked",
      "type": "event"
    },
    {
      "inputs": [],
      "name": "DEFAULT_ADMIN_ROLE",
      "outputs": [
        {
          "internalType": "bytes32",
          "name": "",
          "type": "bytes32"
        }
      ],
      "stateMutability": "view",
      "type": "function"
    },
    {
      "inputs": [],
      "name": "ISSUER_ROLE",
      "outputs": [
        {
          "internalType": "bytes32",
          "name": "",
          "type": "bytes32"
        }
      ],
      "stateMutability": "view",
      "type": "function"
    },
    {
      "inputs": [
        {
          "internalType": "address",
          "name": "_issuer",
          "type": "address"
        }
      ],
      "name": "addIssuer",
      "outputs": [],
      "stateMutability": "nonpayable",
      "type": "function"
    },
    {
      "inputs": [],
      "name": "cgpaVerifier",
      "outputs": [
        {
          "internalType": "contract IGroth16Verifier",
          "name": "",
          "type": "address"
        }
      ],
      "stateMutability": "view",
      "type": "function"
    },
    {
      "inputs": [
        {
          "internalType": "bytes32",
          "name": "",
          "type": "bytes32"
        }
      ],
      "name": "credentials",
      "outputs": [
        {
          "internalType": "string",
          "name": "ipfsHash",
          "type": "string"
        },
        {
          "internalType": "address",
          "name": "issuer",
          "type": "address"
        },
        {
          "internalType": "address",
          "name": "holder",
          "type": "address"
        },
        {
          "internalType": "uint256",
          "name": "issuanceDate",
          "type": "uint256"
        },
        {
          "internalType": "uint256",
          "name": "validUntil",
          "type": "uint256"
        },
        {
          "internalType": "bool",
          "name": "isRevoked",
          "type": "bool"
        },
        {
          "internalType": "bytes32",
          "name": "commitment",
          "type": "bytes32"
        }
      ],
      "stateMutability": "view",
      "type": "function"
    },
    {
      "inputs": [
        {
          "internalType": "bytes32",
          "name": "_credId",
          "type": "bytes32"
        }
      ],
      "name": "fetchCredential",
      "outputs": [
        {
          "internalType": "string",
          "name": "",
          "type": "string"
        },
        {
          "internalType": "address",
          "name": "",
          "type": "address"
        },
        {
          "internalType": "address",
          "name": "",
          "type": "address"
        },
        {
          "internalType": "bool",
          "name": "",
          "type": "bool"
        },
        {
          "internalType": "uint256",
          "name": "",
          "type": "uint256"
        },
        {
          "internalType": "bytes32",
          "name": "",
          "type": "bytes32"
        }
      ],
      "stateMutability": "view",
      "type": "function"
    },
    {
      "inputs": [],
      "name": "getAllIssuers",
      "outputs": [
        {
          "internalType": "address[]",
          "name": "",
          "type": "address[]"
        }
      ],
      "stateMutability": "view",
      "type": "function"
    },
    {
      "inputs": [
        {
          "internalType": "address",
          "name": "_issuer",
          "type": "address"
        }
      ],
      "name": "getIssuedCredentials",
      "outputs": [
        {
          "internalType": "bytes32[]",
          "name": "",
          "type": "bytes32[]"
        }
      ],
      "stateMutability": "view",
      "type": "function"
    },
    {
      "inputs": [],
      "name": "getMyCredentials",
      "outputs": [
        {
          "internalType": "bytes32[]",
          "name": "",
          "type": "bytes32[]"
        }
      ],
      "stateMutability": "view",
      "type": "function"
    },
    {
      "inputs": [
        {
          "internalType": "bytes32",
          "name": "role",
          "type": "bytes32"
        }
      ],
      "name": "getRoleAdmin",
      "outputs": [
        {
          "internalType": "bytes32",
          "name": "",
          "type": "bytes32"
        }
      ],
      "stateMutability": "view",
      "type": "function"
    },
    {
      "inputs": [
        {
          "internalType": "bytes32",
          "name": "role",
          "type": "bytes32"
        },
        {
          "internalType": "address",
          "name": "account",
          "type": "address"
        }
      ],
      "name": "grantRole",
      "outputs": [],
      "stateMutability": "nonpayable",
      "type": "function"
    },
    {
      "inputs": [
        {
          "internalType": "bytes32",
          "name": "role",
          "type": "bytes32"
        },
        {
          "internalType": "address",
          "name": "account",
          "type": "address"
        }
      ],
      "name": "hasRole",
      "outputs": [
        {
          "internalType": "bool",
          "name": "",
          "type": "bool"
        }
      ],
      "stateMutability": "view",
      "type": "function"
    },
    {
      "inputs": [
        {
          "internalType": "address",
          "name": "",
          "type": "address"
        }
      ],
      "name": "isIssuer",
      "outputs": [
        {
          "internalType": "bool",
          "name": "",
          "type": "bool"
        }
      ],
      "stateMutability": "view",
      "type": "function"
    },
    {
      "inputs": [
        {
          "internalType": "address",
          "name": "_holder",
          "type": "address"
        },
        {
          "internalType": "string",
          "name": "_ipfsHash",
          "type": "string"
        },
        {
          "internalType": "uint256",
          "name": "_validUntil",
          "type": "uint256"
        },
        {
          "internalType": "bytes32",
          "name": "_commitment",
          "type": "bytes32"
        }
      ],
      "name": "issueCredential",
      "outputs": [
        {
          "internalType": "bytes32",
          "name": "",
          "type": "bytes32"
        }
      ],
      "stateMutability": "nonpayable",
      "type": "function"
    },
    {
      "inputs": [
        {
          "internalType": "uint256",
          "name": "",
          "type": "uint256"
        }
      ],
      "name": "issuerList",
      "outputs": [
        {
          "internalType": "address",
          "name": "",
          "type": "address"
        }
      ],
      "stateMutability": "view",
      "type": "function"
    },
    {
      "inputs": [
        {
          "internalType": "address",
          "name": "_issuer",
          "type": "address"
        }
      ],
      "name": "removeIssuer",
      "outputs": [],
      "stateMutability": "nonpayable",
      "type": "function"
    },
    {
      "inputs": [
        {
          "internalType": "bytes32",
          "name": "role",
          "type": "bytes32"
        },
        {
          "internalType": "address",
          "name": "callerConfirmation",
          "type": "address"
        }
      ],
      "name": "renounceRole",
      "outputs": [],
      "stateMutability": "nonpayable",
      "type": "function"
    },
    {
      "inputs": [
        {
          "internalType": "bytes32",
          "name": "credId",
          "type": "bytes32"
        }
      ],
      "name": "revokeCredential",
      "outputs": [],
      "stateMutability": "nonpayable",
      "type": "function"
    },
    {
      "inputs": [
        {
          "internalType": "bytes32",
          "name": "role",
          "type": "bytes32"
        },
        {
          "internalType": "address",
          "name": "account",
          "type": "address"
        }
      ],
      "name": "revokeRole",
      "outputs": [],
      "stateMutability": "nonpayable",
      "type": "function"
    },
    {
      "inputs": [
        {
          "internalType": "bytes4",
          "name": "interfaceId",
          "type": "bytes4"
        }
      ],
      "name": "supportsInterface",
      "outputs": [
        {
          "internalType": "bool",
          "name": "",
          "type": "bool"
        }
      ],
      "stateMutability": "view",
      "type": "function"
    },
    {
      "inputs": [],
      "name": "verifier",
      "outputs": [
        {
          "internalType": "contract IGroth16Verifier",
          "name": "",
          "type": "address"
        }
      ],
      "stateMutability": "view",
      "type": "function"
    },
    {
      "inputs": [
        {
          "internalType": "bytes32",
          "name": "_credId",
          "type": "bytes32"
        },
        {
          "internalType": "uint256[2]",
          "name": "_pA",
          "type": "uint256[2]"
        },
        {
          "internalType": "uint256[2][2]",
          "name": "_pB",
          "type": "uint256[2][2]"
        },
        {
          "internalType": "uint256[2]",
          "name": "_pC",
          "type": "uint256[2]"
        },
        {
          "internalType": "uint256",
          "name": "_thresholdDate",
          "type": "uint256"
        }
      ],
      "name": "verifyAge",
      "outputs": [
        {
          "internalType": "bool",
          "name": "",
          "type": "bool"
        }
      ],
      "stateMutability": "nonpayable",
      "type": "function"
    },
    {
      "inputs": [
        {
          "internalType": "bytes32",
          "name": "_credId",
          "type": "bytes32"
        },
        {
          "internalType": "uint256[2]",
          "name": "_pA",
          "type": "uint256[2]"
        },
        {
          "internalType": "uint256[2][2]",
          "name": "_pB",
          "type": "uint256[2][2]"
        },
        {
          "internalType": "uint256[2]",
          "name": "_pC",
          "type": "uint256[2]"
        },
        {
          "internalType": "uint256",
          "name": "_threshold",
          "type": "uint256"
        }
      ],
      "name": "verifyCGPA",
      "outputs": [
        {
          "internalType": "bool",
          "name": "",
          "type": "bool"
        }
      ],
      "stateMutability": "nonpayable",
      "type": "function"
    }
  ],
  "bytecode": "0x608060405234801561000f575f5ffd5b506040516132b13803806132b18339818101604052810190610031919061036e565b8160015f6101000a81548173ffffffffffffffffffffffffffffffffffffffff021916908373ffffffffffffffffffffffffffffffffffffffff1602179055508060025f6101000a81548173ffffffffffffffffffffffffffffffffffffffff021916908373ffffffffffffffffffffffffffffffffffffffff1602179055506100c35f5f1b336101b160201b60201c565b506100f47f114e74f6ea3bd819998f78687bfcb11b140da08e9b7d222fa9c1f1ba1f2aa122336101b160201b60201c565b50600160065f3373ffffffffffffffffffffffffffffffffffffffff1673ffffffffffffffffffffffffffffffffffffffff1681526020019081526020015f205f6101000a81548160ff021916908315150217905550600733908060018154018082558091505060019003905f5260205f20015f9091909190916101000a81548173ffffffffffffffffffffffffffffffffffffffff021916908373ffffffffffffffffffffffffffffffffffffffff16021790555050506103ac565b5f6101c283836102a660201b60201c565b61029c5760015f5f8581526020019081526020015f205f015f8473ffffffffffffffffffffffffffffffffffffffff1673ffffffffffffffffffffffffffffffffffffffff1681526020019081526020015f205f6101000a81548160ff02191690831515021790555061023961030960201b60201c565b73ffffffffffffffffffffffffffffffffffffffff168273ffffffffffffffffffffffffffffffffffffffff16847f2f8788117e7eff1d82e926ec794901d17c78024a50270940304540a733656f0d60405160405180910390a4600190506102a0565b5f90505b92915050565b5f5f5f8481526020019081526020015f205f015f8373ffffffffffffffffffffffffffffffffffffffff1673ffffffffffffffffffffffffffffffffffffffff1681526020019081526020015f205f9054906101000a900460ff16905092915050565b5f33905090565b5f5ffd5b5f73ffffffffffffffffffffffffffffffffffffffff82169050919050565b5f61033d82610314565b9050919050565b61034d81610333565b8114610357575f5ffd5b50565b5f8151905061036881610344565b92915050565b5f5f6040838503121561038457610383610310565b5b5f6103918582860161035a565b92505060206103a28582860161035a565b9150509250929050565b612ef8806103b95f395ff3fe608060405234801561000f575f5ffd5b506004361061014b575f3560e01c806355a2578d116100c1578063ab2017331161007a578063ab201733146103db578063ab22845b1461040b578063bbfbb2ec14610440578063ca6eec781461045e578063d547741f1461047a578063ff2a9af9146104965761014b565b806355a2578d146102df5780636484138a1461030f57806382aefa241461033f578063877b9a671461035d57806391d148541461038d578063a217fddf146103bd5761014b565b80632f2ff15d116101135780632f2ff15d1461021f57806334db12581461023b57806336568abe1461025957806347bc7093146102755780634c32c35c1461029157806353be56be146102af5761014b565b806301ffc9a71461014f57806320694db01461017f578063248a9ca31461019b578063299d0348146101cb5780632b7ac3f314610201575b5f5ffd5b61016960048036038101906101649190611ea5565b6104c6565b6040516101769190611eea565b60405180910390f35b61019960048036038101906101949190611f5d565b61053f565b005b6101b560048036038101906101b09190611fbb565b6106c0565b6040516101c29190611ff5565b60405180910390f35b6101e560048036038101906101e09190611fbb565b6106dc565b6040516101f897969594939291906120a5565b60405180910390f35b6102096107ea565b6040516102169190612174565b60405180910390f35b6102396004803603810190610234919061218d565b61080f565b005b610243610831565b6040516102509190612174565b60405180910390f35b610273600480360381019061026e919061218d565b610856565b005b61028f600480360381019061028a9190611f5d565b6108d1565b005b610299610b6f565b6040516102a69190612282565b60405180910390f35b6102c960048036038101906102c491906122cc565b610bfa565b6040516102d691906122f7565b60405180910390f35b6102f960048036038101906102f4919061243c565b610c35565b6040516103069190611ff5565b60405180910390f35b61032960048036038101906103249190612502565b610f70565b6040516103369190611eea565b60405180910390f35b6103476112be565b6040516103549190611ff5565b60405180910390f35b61037760048036038101906103729190611f5d565b6112e2565b6040516103849190611eea565b60405180910390f35b6103a760048036038101906103a2919061218d565b6112ff565b6040516103b49190611eea565b60405180910390f35b6103c5611362565b6040516103d29190611ff5565b60405180910390f35b6103f560048036038101906103f09190612502565b611368565b6040516104029190611eea565b60405180910390f35b61042560048036038101906104209190611fbb565b6116b6565b6040516104379695949392919061257b565b60405180910390f35b6104486118a3565b6040516104559190612698565b60405180910390f35b61047860048036038101906104739190611fbb565b611934565b005b610494600480360381019061048f919061218d565b611ac1565b005b6104b060048036038101906104ab9190611f5d565b611ae3565b6040516104bd9190612698565b60405180910390f35b5f7f7965db0b000000000000000000000000000000000000000000000000000000007bffffffffffffffffffffffffffffffffffffffffffffffffffffffff1916827bffffffffffffffffffffffffffffffffffffffffffffffffffffffff19161480610538575061053782611b76565b5b9050919050565b5f5f1b61054b81611bdf565b6105757f114e74f6ea3bd819998f78687bfcb11b140da08e9b7d222fa9c1f1ba1f2aa1228361080f565b60065f8373ffffffffffffffffffffffffffffffffffffffff1673ffffffffffffffffffffffffffffffffffffffff1681526020019081526020015f205f9054906101000a900460ff1661067957600160065f8473ffffffffffffffffffffffffffffffffffffffff1673ffffffffffffffffffffffffffffffffffffffff1681526020019081526020015f205f6101000a81548160ff021916908315150217905550600782908060018154018082558091505060019003905f5260205f20015f9091909190916101000a81548173ffffffffffffffffffffffffffffffffffffffff021916908373ffffffffffffffffffffffffffffffffffffffff1602179055505b8173ffffffffffffffffffffffffffffffffffffffff167f05e7c881d716bee8cb7ed92293133ba156704252439e5c502c277448f04e20c260405160405180910390a25050565b5f5f5f8381526020019081526020015f20600101549050919050565b6003602052805f5260405f205f91509050805f0180546106fb906126e5565b80601f0160208091040260200160405190810160405280929190818152602001828054610727906126e5565b80156107725780601f1061074957610100808354040283529160200191610772565b820191905f5260205f20905b81548152906001019060200180831161075557829003601f168201915b505050505090806001015f9054906101000a900473ffffffffffffffffffffffffffffffffffffffff1690806002015f9054906101000a900473ffffffffffffffffffffffffffffffffffffffff1690806003015490806004015490806005015f9054906101000a900460ff16908060060154905087565b60015f9054906101000a900473ffffffffffffffffffffffffffffffffffffffff1681565b610818826106c0565b61082181611bdf565b61082b8383611bf3565b50505050565b60025f9054906101000a900473ffffffffffffffffffffffffffffffffffffffff1681565b61085e611cdc565b73ffffffffffffffffffffffffffffffffffffffff168173ffffffffffffffffffffffffffffffffffffffff16146108c2576040517f6697b23200000000000000000000000000000000000000000000000000000000815260040160405180910390fd5b6108cc8282611ce3565b505050565b5f5f1b6108dd81611bdf565b6109077f114e74f6ea3bd819998f78687bfcb11b140da08e9b7d222fa9c1f1ba1f2aa12283611ac1565b60065f8373ffffffffffffffffffffffffffffffffffffffff1673ffffffffffffffffffffffffffffffffffffffff1681526020019081526020015f205f9054906101000a900460ff1615610b6b575f60065f8473ffffffffffffffffffffffffffffffffffffffff1673ffffffffffffffffffffffffffffffffffffffff1681526020019081526020015f205f6101000a81548160ff0219169083151502179055505f5f90505b600780549050811015610b26578273ffffffffffffffffffffffffffffffffffffffff16600782815481106109e7576109e6612715565b5b905f5260205f20015f9054906101000a900473ffffffffffffffffffffffffffffffffffffffff1673ffffffffffffffffffffffffffffffffffffffff1603610b195760076001600780549050610a3e919061276f565b81548110610a4f57610a4e612715565b5b905f5260205f20015f9054906101000a900473ffffffffffffffffffffffffffffffffffffffff1660078281548110610a8b57610a8a612715565b5b905f5260205f20015f6101000a81548173ffffffffffffffffffffffffffffffffffffffff021916908373ffffffffffffffffffffffffffffffffffffffff1602179055506007805480610ae257610ae16127a2565b5b600190038181905f5260205f20015f6101000a81549073ffffffffffffffffffffffffffffffffffffffff02191690559055610b26565b80806001019150506109af565b508173ffffffffffffffffffffffffffffffffffffffff167faf66545c919a3be306ee446d8f42a9558b5b022620df880517bc9593ec0f2d5260405160405180910390a25b5050565b60606007805480602002602001604051908101604052809291908181526020018280548015610bf057602002820191905f5260205f20905b815f9054906101000a900473ffffffffffffffffffffffffffffffffffffffff1673ffffffffffffffffffffffffffffffffffffffff1681526020019060010190808311610ba7575b5050505050905090565b60078181548110610c09575f80fd5b905f5260205f20015f915054906101000a900473ffffffffffffffffffffffffffffffffffffffff1681565b5f7f114e74f6ea3bd819998f78687bfcb11b140da08e9b7d222fa9c1f1ba1f2aa122610c6081611bdf565b5f4290505f818833604051602001610c7a939291906127cf565b6040516020818303038152906040528051906020012090505f60035f8381526020019081526020015f206003015414610ce8576040517f08c379a0000000000000000000000000000000000000000000000000000000008152600401610cdf9061284e565b60405180910390fd5b6040518060e001604052808881526020013373ffffffffffffffffffffffffffffffffffffffff1681526020018973ffffffffffffffffffffffffffffffffffffffff1681526020018381526020018781526020015f151581526020018681525060035f8381526020019081526020015f205f820151815f019081610d6d9190612a03565b506020820151816001015f6101000a81548173ffffffffffffffffffffffffffffffffffffffff021916908373ffffffffffffffffffffffffffffffffffffffff1602179055506040820151816002015f6101000a81548173ffffffffffffffffffffffffffffffffffffffff021916908373ffffffffffffffffffffffffffffffffffffffff160217905550606082015181600301556080820151816004015560a0820151816005015f6101000a81548160ff02191690831515021790555060c0820151816006015590505060045f8973ffffffffffffffffffffffffffffffffffffffff1673ffffffffffffffffffffffffffffffffffffffff1681526020019081526020015f2081908060018154018082558091505060019003905f5260205f20015f909190919091505560055f3373ffffffffffffffffffffffffffffffffffffffff1673ffffffffffffffffffffffffffffffffffffffff1681526020019081526020015f2081908060018154018082558091505060019003905f5260205f20015f90919091909150558773ffffffffffffffffffffffffffffffffffffffff163373ffffffffffffffffffffffffffffffffffffffff16827fc6f6a1702b44006e35bd83045fd933510f3a924c1bb3877bff1061c14eb1c6be89604051610f5a9190612ad2565b60405180910390a4809350505050949350505050565b5f5f60035f8881526020019081526020015f206040518060e00160405290815f82018054610f9d906126e5565b80601f0160208091040260200160405190810160405280929190818152602001828054610fc9906126e5565b80156110145780601f10610feb57610100808354040283529160200191611014565b820191905f5260205f20905b815481529060010190602001808311610ff757829003601f168201915b50505050508152602001600182015f9054906101000a900473ffffffffffffffffffffffffffffffffffffffff1673ffffffffffffffffffffffffffffffffffffffff1673ffffffffffffffffffffffffffffffffffffffff168152602001600282015f9054906101000a900473ffffffffffffffffffffffffffffffffffffffff1673ffffffffffffffffffffffffffffffffffffffff1673ffffffffffffffffffffffffffffffffffffffff1681526020016003820154815260200160048201548152602001600582015f9054906101000a900460ff1615151515815260200160068201548152505090505f816060015103611147576040517f08c379a000000000000000000000000000000000000000000000000000000000815260040161113e90612b35565b60405180910390fd5b8060a001511561118c576040517f08c379a000000000000000000000000000000000000000000000000000000000815260040161118390612b9d565b60405180910390fd5b611194611e1d565b8160c001515f1c815f600281106111ae576111ad612715565b5b60200201818152505083816001600281106111cc576111cb612715565b5b6020020181815250505f60025f9054906101000a900473ffffffffffffffffffffffffffffffffffffffff1673ffffffffffffffffffffffffffffffffffffffff1663f5c9d69e898989866040518563ffffffff1660e01b81526004016112369493929190612d31565b602060405180830381865afa158015611251573d5f5f3e3d5ffd5b505050506040513d601f19601f820116820180604052508101906112759190612da0565b9050887ff8ea4b84d199e84ff35249e26840ceba1b2a1711d50a01b47e98173701172180826040516112a79190611eea565b60405180910390a280935050505095945050505050565b7f114e74f6ea3bd819998f78687bfcb11b140da08e9b7d222fa9c1f1ba1f2aa12281565b6006602052805f5260405f205f915054906101000a900460ff1681565b5f5f5f8481526020019081526020015f205f015f8373ffffffffffffffffffffffffffffffffffffffff1673ffffffffffffffffffffffffffffffffffffffff1681526020019081526020015f205f9054906101000a900460ff16905092915050565b5f5f1b81565b5f5f60035f8881526020019081526020015f206040518060e00160405290815f82018054611395906126e5565b80601f01602080910402602001604051908101604052809291908181526020018280546113c1906126e5565b801561140c5780601f106113e35761010080835404028352916020019161140c565b820191905f5260205f20905b8154815290600101906020018083116113ef57829003601f168201915b50505050508152602001600182015f9054906101000a900473ffffffffffffffffffffffffffffffffffffffff1673ffffffffffffffffffffffffffffffffffffffff1673ffffffffffffffffffffffffffffffffffffffff168152602001600282015f9054906101000a900473ffffffffffffffffffffffffffffffffffffffff1673ffffffffffffffffffffffffffffffffffffffff1673ffffffffffffffffffffffffffffffffffffffff1681526020016003820154815260200160048201548152602001600582015f9054906101000a900460ff1615151515815260200160068201548152505090505f81606001510361153f576040517f08c379a000000000000000000000000000000000000000000000000000000000815260040161153690612b35565b60405180910390fd5b8060a0015115611584576040517f08c379a000000000000000000000000000000000000000000000000000000000815260040161157b90612b9d565b60405180910390fd5b61158c611e1d565b8160c001515f1c815f600281106115a6576115a5612715565b5b60200201818152505083816001600281106115c4576115c3612715565b5b6020020181815250505f60015f9054906101000a900473ffffffffffffffffffffffffffffffffffffffff1673ffffffffffffffffffffffffffffffffffffffff1663f5c9d69e898989866040518563ffffffff1660e01b815260040161162e9493929190612d31565b602060405180830381865afa158015611649573d5f5f3e3d5ffd5b505050506040513d601f19601f8201168201806040525081019061166d9190612da0565b9050887ff8ea4b84d199e84ff35249e26840ceba1b2a1711d50a01b47e981737011721808260405161169f9190611eea565b60405180910390a280935050505095945050505050565b60605f5f5f5f5f5f60035f8981526020019081526020015f206040518060e00160405290815f820180546116e9906126e5565b80601f0160208091040260200160405190810160405280929190818152602001828054611715906126e5565b80156117605780601f1061173757610100808354040283529160200191611760565b820191905f5260205f20905b81548152906001019060200180831161174357829003601f168201915b50505050508152602001600182015f9054906101000a900473ffffffffffffffffffffffffffffffffffffffff1673ffffffffffffffffffffffffffffffffffffffff1673ffffffffffffffffffffffffffffffffffffffff168152602001600282015f9054906101000a900473ffffffffffffffffffffffffffffffffffffffff1673ffffffffffffffffffffffffffffffffffffffff1673ffffffffffffffffffffffffffffffffffffffff1681526020016003820154815260200160048201548152602001600582015f9054906101000a900460ff1615151515815260200160068201548152505090505f5f8260800151141580156118655750816080015142115b9050815f0151826020015183604001518460a00151806118825750835b85608001518660c00151975097509750975097509750505091939550919395565b606060045f3373ffffffffffffffffffffffffffffffffffffffff1673ffffffffffffffffffffffffffffffffffffffff1681526020019081526020015f2080548060200260200160405190810160405280929190818152602001828054801561192a57602002820191905f5260205f20905b815481526020019060010190808311611916575b5050505050905090565b7f114e74f6ea3bd819998f78687bfcb11b140da08e9b7d222fa9c1f1ba1f2aa12261195e81611bdf565b5f60035f8481526020019081526020015f2090505f8160030154036119b8576040517f08c379a00000000000000000000000000000000000000000000000000000000081526004016119af90612e15565b60405180910390fd5b3373ffffffffffffffffffffffffffffffffffffffff16816001015f9054906101000a900473ffffffffffffffffffffffffffffffffffffffff1673ffffffffffffffffffffffffffffffffffffffff161480611a1d5750611a1c5f5f1b336112ff565b5b611a5c576040517f08c379a0000000000000000000000000000000000000000000000000000000008152600401611a5390612e7d565b60405180910390fd5b6001816005015f6101000a81548160ff0219169083151502179055503373ffffffffffffffffffffffffffffffffffffffff16837fd3196f598a360c115a1de20d5a58021203793f1bf1a08efe55ee14545779606d60405160405180910390a3505050565b611aca826106c0565b611ad381611bdf565b611add8383611ce3565b50505050565b606060055f8373ffffffffffffffffffffffffffffffffffffffff1673ffffffffffffffffffffffffffffffffffffffff1681526020019081526020015f20805480602002602001604051908101604052809291908181526020018280548015611b6a57602002820191905f5260205f20905b815481526020019060010190808311611b56575b50505050509050919050565b5f7f01ffc9a7000000000000000000000000000000000000000000000000000000007bffffffffffffffffffffffffffffffffffffffffffffffffffffffff1916827bffffffffffffffffffffffffffffffffffffffffffffffffffffffff1916149050919050565b611bf081611beb611cdc565b611dcc565b50565b5f611bfe83836112ff565b611cd25760015f5f8581526020019081526020015f205f015f8473ffffffffffffffffffffffffffffffffffffffff1673ffffffffffffffffffffffffffffffffffffffff1681526020019081526020015f205f6101000a81548160ff021916908315150217905550611c6f611cdc565b73ffffffffffffffffffffffffffffffffffffffff168273ffffffffffffffffffffffffffffffffffffffff16847f2f8788117e7eff1d82e926ec794901d17c78024a50270940304540a733656f0d60405160405180910390a460019050611cd6565b5f90505b92915050565b5f33905090565b5f611cee83836112ff565b15611dc2575f5f5f8581526020019081526020015f205f015f8473ffffffffffffffffffffffffffffffffffffffff1673ffffffffffffffffffffffffffffffffffffffff1681526020019081526020015f205f6101000a81548160ff021916908315150217905550611d5f611cdc565b73ffffffffffffffffffffffffffffffffffffffff168273ffffffffffffffffffffffffffffffffffffffff16847ff6391f5c32d9c69d2a47ea670b442974b53935d1edc7fd64eb21e047a839171b60405160405180910390a460019050611dc6565b5f90505b92915050565b611dd682826112ff565b611e195780826040517fe2517d3f000000000000000000000000000000000000000000000000000000008152600401611e10929190612e9b565b60405180910390fd5b5050565b6040518060400160405280600290602082028036833780820191505090505090565b5f604051905090565b5f5ffd5b5f5ffd5b5f7fffffffff0000000000000000000000000000000000000000000000000000000082169050919050565b611e8481611e50565b8114611e8e575f5ffd5b50565b5f81359050611e9f81611e7b565b92915050565b5f60208284031215611eba57611eb9611e48565b5b5f611ec784828501611e91565b91505092915050565b5f8115159050919050565b611ee481611ed0565b82525050565b5f602082019050611efd5f830184611edb565b92915050565b5f73ffffffffffffffffffffffffffffffffffffffff82169050919050565b5f611f2c82611f03565b9050919050565b611f3c81611f22565b8114611f46575f5ffd5b50565b5f81359050611f5781611f33565b92915050565b5f60208284031215611f7257611f71611e48565b5b5f611f7f84828501611f49565b91505092915050565b5f819050919050565b611f9a81611f88565b8114611fa4575f5ffd5b50565b5f81359050611fb581611f91565b92915050565b5f60208284031215611fd057611fcf611e48565b5b5f611fdd84828501611fa7565b91505092915050565b611fef81611f88565b82525050565b5f6020820190506120085f830184611fe6565b92915050565b5f81519050919050565b5f82825260208201905092915050565b8281835e5f83830152505050565b5f601f19601f8301169050919050565b5f6120508261200e565b61205a8185612018565b935061206a818560208601612028565b61207381612036565b840191505092915050565b61208781611f22565b82525050565b5f819050919050565b61209f8161208d565b82525050565b5f60e0820190508181035f8301526120bd818a612046565b90506120cc602083018961207e565b6120d9604083018861207e565b6120e66060830187612096565b6120f36080830186612096565b61210060a0830185611edb565b61210d60c0830184611fe6565b98975050505050505050565b5f819050919050565b5f61213c61213761213284611f03565b612119565b611f03565b9050919050565b5f61214d82612122565b9050919050565b5f61215e82612143565b9050919050565b61216e81612154565b82525050565b5f6020820190506121875f830184612165565b92915050565b5f5f604083850312156121a3576121a2611e48565b5b5f6121b085828601611fa7565b92505060206121c185828601611f49565b9150509250929050565b5f81519050919050565b5f82825260208201905092915050565b5f819050602082019050919050565b6121fd81611f22565b82525050565b5f61220e83836121f4565b60208301905092915050565b5f602082019050919050565b5f612230826121cb565b61223a81856121d5565b9350612245836121e5565b805f5b8381101561227557815161225c8882612203565b97506122678361221a565b925050600181019050612248565b5085935050505092915050565b5f6020820190508181035f83015261229a8184612226565b905092915050565b6122ab8161208d565b81146122b5575f5ffd5b50565b5f813590506122c6816122a2565b92915050565b5f602082840312156122e1576122e0611e48565b5b5f6122ee848285016122b8565b91505092915050565b5f60208201905061230a5f83018461207e565b92915050565b5f5ffd5b5f5ffd5b7f4e487b71000000000000000000000000000000000000000000000000000000005f52604160045260245ffd5b61234e82612036565b810181811067ffffffffffffffff8211171561236d5761236c612318565b5b80604052505050565b5f61237f611e3f565b905061238b8282612345565b919050565b5f67ffffffffffffffff8211156123aa576123a9612318565b5b6123b382612036565b9050602081019050919050565b828183375f83830152505050565b5f6123e06123db84612390565b612376565b9050828152602081018484840111156123fc576123fb612314565b5b6124078482856123c0565b509392505050565b5f82601f83011261242357612422612310565b5b81356124338482602086016123ce565b91505092915050565b5f5f5f5f6080858703121561245457612453611e48565b5b5f61246187828801611f49565b945050602085013567ffffffffffffffff81111561248257612481611e4c565b5b61248e8782880161240f565b935050604061249f878288016122b8565b92505060606124b087828801611fa7565b91505092959194509250565b5f5ffd5b5f819050826020600202820111156124db576124da6124bc565b5b92915050565b5f819050826040600202820111156124fc576124fb6124bc565b5b92915050565b5f5f5f5f5f610140868803121561251c5761251b611e48565b5b5f61252988828901611fa7565b955050602061253a888289016124c0565b945050606061254b888289016124e1565b93505060e061255c888289016124c0565b92505061012061256e888289016122b8565b9150509295509295909350565b5f60c0820190508181035f8301526125938189612046565b90506125a2602083018861207e565b6125af604083018761207e565b6125bc6060830186611edb565b6125c96080830185612096565b6125d660a0830184611fe6565b979650505050505050565b5f81519050919050565b5f82825260208201905092915050565b5f819050602082019050919050565b61261381611f88565b82525050565b5f612624838361260a565b60208301905092915050565b5f602082019050919050565b5f612646826125e1565b61265081856125eb565b935061265b836125fb565b805f5b8381101561268b5781516126728882612619565b975061267d83612630565b92505060018101905061265e565b5085935050505092915050565b5f6020820190508181035f8301526126b0818461263c565b905092915050565b7f4e487b71000000000000000000000000000000000000000000000000000000005f52602260045260245ffd5b5f60028204905060018216806126fc57607f821691505b60208210810361270f5761270e6126b8565b5b50919050565b7f4e487b71000000000000000000000000000000000000000000000000000000005f52603260045260245ffd5b7f4e487b71000000000000000000000000000000000000000000000000000000005f52601160045260245ffd5b5f6127798261208d565b91506127848361208d565b925082820390508181111561279c5761279b612742565b5b92915050565b7f4e487b71000000000000000000000000000000000000000000000000000000005f52603160045260245ffd5b5f6060820190506127e25f830186612096565b6127ef602083018561207e565b6127fc604083018461207e565b949350505050565b7f43726564656e7469616c20616c726561647920657869737473000000000000005f82015250565b5f612838601983612018565b915061284382612804565b602082019050919050565b5f6020820190508181035f8301526128658161282c565b9050919050565b5f819050815f5260205f209050919050565b5f6020601f8301049050919050565b5f82821b905092915050565b5f600883026128c87fffffffffffffffffffffffffffffffffffffffffffffffffffffffffffffffff8261288d565b6128d2868361288d565b95508019841693508086168417925050509392505050565b5f6129046128ff6128fa8461208d565b612119565b61208d565b9050919050565b5f819050919050565b61291d836128ea565b6129316129298261290b565b848454612899565b825550505050565b5f5f905090565b612948612939565b612953818484612914565b505050565b5b818110156129765761296b5f82612940565b600181019050612959565b5050565b601f8211156129bb5761298c8161286c565b6129958461287e565b810160208510156129a4578190505b6129b86129b08561287e565b830182612958565b50505b505050565b5f82821c905092915050565b5f6129db5f19846008026129c0565b1980831691505092915050565b5f6129f383836129cc565b9150826002028217905092915050565b612a0c8261200e565b67ffffffffffffffff811115612a2557612a24612318565b5b612a2f82546126e5565b612a3a82828561297a565b5f60209050601f831160018114612a6b575f8415612a59578287015190505b612a6385826129e8565b865550612aca565b601f198416612a798661286c565b5f5b82811015612aa057848901518255600182019150602085019450602081019050612a7b565b86831015612abd5784890151612ab9601f8916826129cc565b8355505b6001600288020188555050505b505050505050565b5f602082019050612ae55f830184612096565b92915050565b7f43726564656e7469616c206e6f7420666f756e640000000000000000000000005f82015250565b5f612b1f601483612018565b9150612b2a82612aeb565b602082019050919050565b5f6020820190508181035f830152612b4c81612b13565b9050919050565b7f43726564656e7469616c207265766f6b656400000000000000000000000000005f82015250565b5f612b87601283612018565b9150612b9282612b53565b602082019050919050565b5f6020820190508181035f830152612bb481612b7b565b9050919050565b82818337505050565b612bd060408383612bbb565b5050565b5f60029050919050565b5f81905092915050565b5f819050919050565b612bfd60408383612bbb565b5050565b5f612c0c8383612bf1565b60408301905092915050565b5f82905092915050565b5f604082019050919050565b612c3781612bd4565b612c418184612bde565b9250612c4c82612be8565b805f5b83811015612c8457612c618284612c18565b612c6b8782612c01565b9650612c7683612c22565b925050600181019050612c4f565b505050505050565b5f60029050919050565b5f81905092915050565b5f819050919050565b612cb28161208d565b82525050565b5f612cc38383612ca9565b60208301905092915050565b5f602082019050919050565b612ce481612c8c565b612cee8184612c96565b9250612cf982612ca0565b805f5b83811015612d29578151612d108782612cb8565b9650612d1b83612ccf565b925050600181019050612cfc565b505050505050565b5f61014082019050612d455f830187612bc4565b612d526040830186612c2e565b612d5f60c0830185612bc4565b612d6d610100830184612cdb565b95945050505050565b612d7f81611ed0565b8114612d89575f5ffd5b50565b5f81519050612d9a81612d76565b92915050565b5f60208284031215612db557612db4611e48565b5b5f612dc284828501612d8c565b91505092915050565b7f43726564656e7469616c20646f6573206e6f74206578697374000000000000005f82015250565b5f612dff601983612018565b9150612e0a82612dcb565b602082019050919050565b5f6020820190508181035f830152612e2c81612df3565b9050919050565b7f4f6e6c79206973737565722f61646d696e0000000000000000000000000000005f82015250565b5f612e67601183612018565b9150612e7282612e33565b602082019050919050565b5f6020820190508181035f830152612e9481612e5b565b9050919050565b5f604082019050612eae5f83018561207e565b612ebb6020830184611fe6565b939250505056fea2646970667358221220272d8a945e7454fe913cc4c6868fbac3f596efec25c87647b834eea1c5546fc364736f6c634300081c0033",
  "linkReferences": {},
  "deployedLinkReferences": {},
  "immutableReferences": {},
  "inputSourceName": "project/contracts/CredentialRegistry.sol",
  "buildInfoId": "solc-0_8_28-40225474bc6434e545b74b6fa8d06af00816fd8c"
}