{
  "_format": "hh3-artifact-1",
  "contractName": "CredentialRegistry",
  "sourceName": "contracts/CredentialRegistry.sol",
  "abi": [
    {
      "inputs": [
        {
          "internalType": "address",
          "name": "_verifierAddress",
          "type": "address"
        },
        {
          "internalType": "address",
          "name": "_cgpaVerifierAddress",
          "type": "address"
        }
      ],
      "stateMutability": "nonpayable",
      "type": "constructor"
    },
    {
      "inputs": [],
      "name": "AccessControlBadConfirmation",
      "type": "error"
    },
    {
      "inputs": [
        {
          "internalType": "address",
          "name": "account",
          "type": "address"
        },
        {
          "internalType": "bytes32",
          "name": "neededRole",
          "type": "bytes32"
        }
      ],
      "name": "AccessControlUnauthorizedAccount",
      "type": "error"
    },
    {
      "anonymous": false,
      "inputs": [
        {
          "indexed": true,
          "internalType": "bytes32",
          "name": "credId",
          "type": "bytes32"
        },
        {
          "indexed": true,
          "internalType": "address",
          "name": "issuer",
          "type": "address"
        },
        {
          "indexed": true,
          "internalType": "address",
          "name": "holder",
          "type": "address"
        },
        {
          "indexed": false,
          "internalType": "uint256",
          "name": "validUntil",
          "type": "uint256"
        }
      ],
      "name": "CredentialIssued",
      "type": "event"
    },
    {
      "anonymous": false,
      "inputs": [
        {
          "indexed": true,
          "internalType": "bytes32",
          "name": "credId",
          "type": "bytes32"
        },
        {
          "indexed": true,
          "internalType": "address",
          "name": "revokedBy",
          "type": "address"
        }
      ],
      "name": "CredentialRevoked",
      "type": "event"
    },
    {
      "anonymous": false,
      "inputs": [
        {
          "indexed": true,
          "internalType": "address",
          "name": "issuer",
          "type": "address"
        }
      ],
      "name": "IssuerAdded",
      "type": "event"
    },
    {
      "anonymous": false,
      "inputs": [
        {
          "indexed": true,
          "internalType": "address",
          "name": "issuer",
          "type": "address"
        }
      ],
      "name": "IssuerRemoved",
      "type": "event"
    },
    {
      "anonymous": false,
      "inputs": [
        {
          "indexed": true,
          "internalType": "bytes32",
          "name": "credId",
          "type": "bytes32"
        },
        {
          "indexed": false,
          "internalType": "bool",
          "name": "success",
          "type": "bool"
        }
      ],
      "name": "ProofVerified",
      "type": "event"
    },
    {
      "anonymous": false,
      "inputs": [
        {
          "indexed": true,
          "internalType": "bytes32",
          "name": "role",
          "type": "bytes32"
        },
        {
          "indexed": true,
          "internalType": "bytes32",
          "name": "previousAdminRole",
          "type": "bytes32"
        },
        {
          "indexed": true,
          "internalType": "bytes32",
          "name": "newAdminRole",
          "type": "bytes32"
        }
      ],
      "name": "RoleAdminChanged",
      "type": "event"
    },
    {
      "anonymous": false,
      "inputs": [
        {
          "indexed": true,
          "internalType": "bytes32",
          "name": "role",
          "type": "bytes32"
        },
        {
          "indexed": true,
          "internalType": "address",
          "name": "account",
          "type": "address"
        },
        {
          "indexed": true,
          "internalType": "address",
          "name": "sender",
          "type": "address"
        }
      ],
      "name": "RoleGranted",
      "type": "event"
    },
    {
      "anonymous": false,
      "inputs": [
        {
          "indexed": true,
          "internalType": "bytes32",
          "name": "role",
          "type": "bytes32"
        },
        {
          "indexed": true,
          "internalType": "address",
          "name": "account",
          "type": "address"
        },
        {
          "indexed": true,
          "internalType": "address",
          "name": "sender",
          "type": "address"
        }
      ],
      "name": "RoleRevoked",
      "type": "event"
    },
    {
      "inputs": [],
      "name": "DEFAULT_ADMIN_ROLE",
      "outputs": [
        {
          "internalType": "bytes32",
          "name": "",
          "type": "bytes32"
        }
      ],
      "stateMutability": "view",
      "type": "function"
    },
    {
      "inputs": [],
      "name": "ISSUER_ROLE",
      "outputs": [
        {
          "internalType": "bytes32",
          "name": "",
          "type": "bytes32"
        }
      ],
      "stateMutability": "view",
      "type": "function"
    },
    {
      "inputs": [
        {
          "internalType": "address",
          "name": "_issuer",
          "type": "address"
        }
      ],
      "name": "addIssuer",
      "outputs": [],
      "stateMutability": "nonpayable",
      "type": "function"
    },
    {
      "inputs": [],
      "name": "cgpaVerifier",
      "outputs": [
        {
          "internalType": "contract IGroth16Verifier",
          "name": "",
          "type": "address"
        }
      ],
      "stateMutability": "view",
      "type": "function"
    },
    {
      "inputs": [
        {
          "internalType": "bytes32",
          "name": "",
          "type": "bytes32"
        }
      ],
      "name": "credentials",
      "outputs": [
        {
          "internalType": "string",
          "name": "ipfsHash",
          "type": "string"
        },
        {
          "internalType": "address",
          "name": "issuer",
          "type": "address"
        },
        {
          "internalType": "address",
          "name": "holder",
          "type": "address"
        },
        {
          "internalType": "uint256",
          "name": "issuanceDate",
          "type": "uint256"
        },
        {
          "internalType": "uint256",
          "name": "validUntil",
          "type": "uint256"
        },
        {
          "internalType": "bool",
          "name": "isRevoked",
          "type": "bool"
        },
        {
          "internalType": "bytes32",
          "name": "commitment",
          "type": "bytes32"
        }
      ],
      "stateMutability": "view",
      "type": "function"
    },
    {
      "inputs": [
        {
          "internalType": "bytes32",
          "name": "_credId",
          "type": "bytes32"
        }
      ],
      "name": "fetchCredential",
      "outputs": [
        {
          "internalType": "string",
          "name": "",
          "type": "string"
        },
        {
          "internalType": "address",
          "name": "",
          "type": "address"
        },
        {
          "internalType": "address",
          "name": "",
          "type": "address"
        },
        {
          "internalType": "bool",
          "name": "",
          "type": "bool"
        },
        {
          "internalType": "uint256",
          "name": "",
          "type": "uint256"
        },
        {
          "internalType": "bytes32",
          "name": "",
          "type": "bytes32"
        }
      ],
      "stateMutability": "view",
      "type": "function"
    },
    {
      "inputs": [],
      "name": "getAllIssuers",
      "outputs": [
        {
          "internalType": "address[]",
          "name": "",
          "type": "address[]"
        }
      ],
      "stateMutability": "view",
      "type": "function"
    },
    {
      "inputs": [
        {
          "internalType": "address",
          "name": "_issuer",
          "type": "address"
        }
      ],
      "name": "getIssuedCredentials",
      "outputs": [
        {
          "internalType": "bytes32[]",
          "name": "",
          "type": "bytes32[]"
        }
      ],
      "stateMutability": "view",
      "type": "function"
    },
    {
      "inputs": [],
      "name": "getMyCredentials",
      "outputs": [
        {
          "internalType": "bytes32[]",
          "name": "",
          "type": "bytes32[]"
        }
      ],
      "stateMutability": "view",
      "type": "function"
    },
    {
      "inputs": [
        {
          "internalType": "bytes32",
          "name": "role",
          "type": "bytes32"
        }
      ],
      "name": "getRoleAdmin",
      "outputs": [
        {
          "internalType": "bytes32",
          "name": "",
          "type": "bytes32"
        }
      ],
      "stateMutability": "view",
      "type": "function"
    },
    {
      "inputs": [
        {
          "internalType": "bytes32",
          "name": "role",
          "type": "bytes32"
        },
        {
          "internalType": "address",
          "name": "account",
          "type": "address"
        }
      ],
      "name": "grantRole",
      "outputs": [],
      "stateMutability": "nonpayable",
      "type": "function"
    },
    {
      "inputs": [
        {
          "internalType": "bytes32",
          "name": "role",
          "type": "bytes32"
        },
        {
          "internalType": "address",
          "name": "account",
          "type": "address"
        }
      ],
      "name": "hasRole",
      "outputs": [
        {
          "internalType": "bool",
          "name": "",
          "type": "bool"
        }
      ],
      "stateMutability": "view",
      "type": "function"
    },
    {
      "inputs": [
        {
          "internalType": "address",
          "name": "",
          "type": "address"
        }
      ],
      "name": "isIssuer",
      "outputs": [
        {
          "internalType": "bool",
          "name": "",
          "type": "bool"
        }
      ],
      "stateMutability": "view",
      "type": "function"
    },
    {
      "inputs": [
        {
          "internalType": "address",
          "name": "_holder",
          "type": "address"
        },
        {
          "internalType": "string",
          "name": "_ipfsHash",
          "type": "string"
        },
        {
          "internalType": "uint256",
          "name": "_validUntil",
          "type": "uint256"
        },
        {
          "internalType": "bytes32",
          "name": "_commitment",
          "type": "bytes32"
        }
      ],
      "name": "issueCredential",
      "outputs": [
        {
          "internalType": "bytes32",
          "name": "",
          "type": "bytes32"
        }
      ],
      "stateMutability": "nonpayable",
      "type": "function"
    },
    {
      "inputs": [
        {
          "internalType": "uint256",
          "name": "",
          "type": "uint256"
        }
      ],
      "name": "issuerList",
      "outputs": [
        {
          "internalType": "address",
          "name": "",
          "type": "address"
        }
      ],
      "stateMutability": "view",
      "type": "function"
    },
    {
      "inputs": [
        {
          "internalType": "address",
          "name": "_issuer",
          "type": "address"
        }
      ],
      "name": "removeIssuer",
      "outputs": [],
      "stateMutability": "nonpayable",
      "type": "function"
    },
    {
      "inputs": [
        {
          "internalType": "bytes32",
          "name": "role",
          "type": "bytes32"
        },
        {
          "internalType": "address",
          "name": "callerConfirmation",
          "type": "address"
        }
      ],
      "name": "renounceRole",
      "outputs": [],
      "stateMutability": "nonpayable",
      "type": "function"
    },
    {
      "inputs": [
        {
          "internalType": "bytes32",
          "name": "credId",
          "type": "bytes32"
        }
      ],
      "name": "revokeCredential",
      "outputs": [],
      "stateMutability": "nonpayable",
      "type": "function"
    },
    {
      "inputs": [
        {
          "internalType": "bytes32",
          "name": "role",
          "type": "bytes32"
        },
        {
          "internalType": "address",
          "name": "account",
          "type": "address"
        }
      ],
      "name": "revokeRole",
      "outputs": [],
      "stateMutability": "nonpayable",
      "type": "function"
    },
    {
      "inputs": [
        {
          "internalType": "bytes4",
          "name": "interfaceId",
          "type": "bytes4"
        }
      ],
      "name": "supportsInterface",
      "outputs": [
        {
          "internalType": "bool",
          "name": "",
          "type": "bool"
        }
      ],
      "stateMutability": "view",
      "type": "function"
    },
    {
      "inputs": [],
      "name": "verifier",
      "outputs": [
        {
          "internalType": "contract IGroth16Verifier",
          "name": "",
          "type": "address"
        }
      ],
      "stateMutability": "view",
      "type": "function"
    },
    {
      "inputs": [
        {
          "internalType": "bytes32",
          "name": "_credId",
          "type": "bytes32"
        },
        {
          "internalType": "uint256[2]",
          "name": "_pA",
          "type": "uint256[2]"
        },
        {
          "internalType": "uint256[2][2]",
          "name": "_pB",
          "type": "uint256[2][2]"
        },
        {
          "internalType": "uint256[2]",
          "name": "_pC",
          "type": "uint256[2]"
        },
        {
          "internalType": "uint256",
          "name": "_thresholdDate",
          "type": "uint256"
        }
      ],
      "name": "verifyAge",
      "outputs": [
        {
          "internalType": "bool",
          "name": "",
          "type": "bool"
        }
      ],
      "stateMutability": "nonpayable",
      "type": "function"
    },
    {
      "inputs": [
        {
          "internalType": "bytes32",
          "name": "_credId",
          "type": "bytes32"
        },
        {
          "internalType": "uint256[2]",
          "name": "_pA",
          "type": "uint256[2]"
        },
        {
          "internalType": "uint256[2][2]",
          "name": "_pB",
          "type": "uint256[2][2]"
        },
        {
          "internalType": "uint256[2]",
          "name": "_pC",
          "type": "uint256[2]"
        },
        {
          "internalType": "uint256",
          "name": "_threshold",
          "type": "uint256"
        }
      ],
      "name": "verifyCGPA",
      "outputs": [
        {
          "internalType": "bool",
          "name": "",
          "type": "bool"
        }
      ],
      "stateMutability": "nonpayable",
      "type": "function"
    }
  ],
  "bytecode": "0x608060405234801561000f575f5ffd5b50604051611aa6380380611aa683398101604081905261002e916101ba565b600180546001600160a01b038085166001600160a01b03199283161790925560028054928416929091169190911790556100685f336100f6565b506100937f114e74f6ea3bd819998f78687bfcb11b140da08e9b7d222fa9c1f1ba1f2aa122336100f6565b5050335f818152600660205260408120805460ff191660019081179091556007805491820181559091527fa66cc928b5edb82af9bd49922954155ab7b0942694bea4ce44661d9a8736c6880180546001600160a01b0319169091179055506101eb565b5f828152602081815260408083206001600160a01b038516845290915281205460ff16610196575f838152602081815260408083206001600160a01b03861684529091529020805460ff1916600117905561014e3390565b6001600160a01b0316826001600160a01b0316847f2f8788117e7eff1d82e926ec794901d17c78024a50270940304540a733656f0d60405160405180910390a4506001610199565b505f5b92915050565b80516001600160a01b03811681146101b5575f5ffd5b919050565b5f5f604083850312156101cb575f5ffd5b6101d48361019f565b91506101e26020840161019f565b90509250929050565b6118ae806101f85f395ff3fe608060405234801561000f575f5ffd5b5060043610610148575f3560e01c806355a2578d116100bf578063ab20173311610079578063ab201733146102f4578063ab22845b14610307578063bbfbb2ec1461032c578063ca6eec7814610341578063d547741f14610354578063ff2a9af914610367575f5ffd5b806355a2578d1461027e5780636484138a1461029157806382aefa24146102a4578063877b9a67146102b857806391d14854146102da578063a217fddf146102ed575f5ffd5b80632f2ff15d116101105780632f2ff15d1461020a57806334db12581461021d57806336568abe1461023057806347bc7093146102435780634c32c35c1461025657806353be56be1461026b575f5ffd5b806301ffc9a71461014c57806320694db014610174578063248a9ca314610189578063299d0348146101b95780632b7ac3f3146101df575b5f5ffd5b61015f61015a36600461130a565b61037a565b60405190151581526020015b60405180910390f35b610187610182366004611353565b6103b0565b005b6101ab61019736600461136c565b5f9081526020819052604090206001015490565b60405190815260200161016b565b6101cc6101c736600461136c565b61048c565b60405161016b97969594939291906113b1565b6001546101f2906001600160a01b031681565b6040516001600160a01b03909116815260200161016b565b6101876102183660046113ff565b61055e565b6002546101f2906001600160a01b031681565b61018761023e3660046113ff565b610588565b610187610251366004611353565b6105c0565b61025e61074e565b60405161016b9190611429565b6101f261027936600461136c565b6107ae565b6101ab61028c366004611488565b6107d6565b61015f61029f36600461156b565b6109ea565b6101ab5f5160206118595f395f51905f5281565b61015f6102c6366004611353565b60066020525f908152604090205460ff1681565b61015f6102e83660046113ff565b610c4d565b6101ab5f81565b61015f61030236600461156b565b610c75565b61031a61031536600461136c565b610e4f565b60405161016b969594939291906115c6565b610334610fab565b60405161016b919061160d565b61018761034f36600461136c565b611008565b6101876103623660046113ff565b611121565b610334610375366004611353565b611145565b5f6001600160e01b03198216637965db0b60e01b14806103aa57506301ffc9a760e01b6001600160e01b03198316145b92915050565b5f6103ba816111ae565b6103d15f5160206118595f395f51905f528361055e565b6001600160a01b0382165f9081526006602052604090205460ff16610455576001600160a01b0382165f818152600660205260408120805460ff191660019081179091556007805491820181559091527fa66cc928b5edb82af9bd49922954155ab7b0942694bea4ce44661d9a8736c6880180546001600160a01b03191690911790555b6040516001600160a01b038316907f05e7c881d716bee8cb7ed92293133ba156704252439e5c502c277448f04e20c2905f90a25050565b60036020525f90815260409020805481906104a690611644565b80601f01602080910402602001604051908101604052809291908181526020018280546104d290611644565b801561051d5780601f106104f45761010080835404028352916020019161051d565b820191905f5260205f20905b81548152906001019060200180831161050057829003601f168201915b5050506001840154600285015460038601546004870154600588015460069098015496976001600160a01b03948516979390941695509093509160ff169087565b5f82815260208190526040902060010154610578816111ae565b61058283836111bb565b50505050565b6001600160a01b03811633146105b15760405163334bd91960e11b815260040160405180910390fd5b6105bb828261124a565b505050565b5f6105ca816111ae565b6105e15f5160206118595f395f51905f5283611121565b6001600160a01b0382165f9081526006602052604090205460ff161561074a576001600160a01b0382165f908152600660205260408120805460ff191690555b60075481101561071557826001600160a01b0316600782815481106106485761064861167c565b5f918252602090912001546001600160a01b03160361070d576007805461067190600190611690565b815481106106815761068161167c565b5f91825260209091200154600780546001600160a01b0390921691839081106106ac576106ac61167c565b905f5260205f20015f6101000a8154816001600160a01b0302191690836001600160a01b0316021790555060078054806106e8576106e86116af565b5f8281526020902081015f1990810180546001600160a01b0319169055019055610715565b600101610621565b506040516001600160a01b038316907faf66545c919a3be306ee446d8f42a9558b5b022620df880517bc9593ec0f2d52905f90a25b5050565b606060078054806020026020016040519081016040528092919081815260200182805480156107a457602002820191905f5260205f20905b81546001600160a01b03168152600190910190602001808311610786575b5050505050905090565b600781815481106107bd575f80fd5b5f918252602090912001546001600160a01b0316905081565b5f5f5160206118595f395f51905f526107ee816111ae565b6040805142602082018190526001600160a01b038916928201929092523360608201525f9060800160405160208183030381529060405280519060200120905060035f8281526020019081526020015f20600301545f146108965760405162461bcd60e51b815260206004820152601960248201527f43726564656e7469616c20616c7265616479206578697374730000000000000060448201526064015b60405180910390fd5b6040805160e081018252888152336020808301919091526001600160a01b038b168284015260608201859052608082018990525f60a0830181905260c08301899052848152600390915291909120815181906108f2908261170e565b50602082810151600183810180546001600160a01b03199081166001600160a01b03948516179091556040808701516002870180549093169085161790915560608601516003860155608086015160048087019190915560a08701516005808801805460ff19169215159290921790915560c090970151600690960195909555918d165f81815294845282852080548084018255908652848620018790553380865295845282852080549283018155855293839020018590555189815291929184917fc6f6a1702b44006e35bd83045fd933510f3a924c1bb3877bff1061c14eb1c6be910160405180910390a4979650505050505050565b5f85815260036020526040808220815160e0810190925280548392919082908290610a1490611644565b80601f0160208091040260200160405190810160405280929190818152602001828054610a4090611644565b8015610a8b5780601f10610a6257610100808354040283529160200191610a8b565b820191905f5260205f20905b815481529060010190602001808311610a6e57829003601f168201915b505050918352505060018201546001600160a01b0390811660208301526002830154166040820152600382015460608083019190915260048301546080830152600583015460ff16151560a083015260069092015460c0909101528101519091505f03610b315760405162461bcd60e51b815260206004820152601460248201527310dc9959195b9d1a585b081b9bdd08199bdd5b9960621b604482015260640161088d565b8060a0015115610b785760405162461bcd60e51b815260206004820152601260248201527110dc9959195b9d1a585b081c995d9bdad95960721b604482015260640161088d565b610b806112ec565b60c0820151815260208101849052600254604051637ae4eb4f60e11b81525f916001600160a01b03169063f5c9d69e90610bc4908b908b908b9088906004016117c9565b602060405180830381865afa158015610bdf573d5f5f3e3d5ffd5b505050506040513d601f19601f82011682018060405250810190610c039190611839565b9050887ff8ea4b84d199e84ff35249e26840ceba1b2a1711d50a01b47e9817370117218082604051610c39911515815260200190565b60405180910390a298975050505050505050565b5f918252602082815260408084206001600160a01b0393909316845291905290205460ff1690565b5f85815260036020526040808220815160e0810190925280548392919082908290610c9f90611644565b80601f0160208091040260200160405190810160405280929190818152602001828054610ccb90611644565b8015610d165780601f10610ced57610100808354040283529160200191610d16565b820191905f5260205f20905b815481529060010190602001808311610cf957829003601f168201915b505050918352505060018201546001600160a01b0390811660208301526002830154166040820152600382015460608083019190915260048301546080830152600583015460ff16151560a083015260069092015460c0909101528101519091505f03610dbc5760405162461bcd60e51b815260206004820152601460248201527310dc9959195b9d1a585b081b9bdd08199bdd5b9960621b604482015260640161088d565b8060a0015115610e035760405162461bcd60e51b815260206004820152601260248201527110dc9959195b9d1a585b081c995d9bdad95960721b604482015260640161088d565b610e0b6112ec565b60c0820151815260208101849052600154604051637ae4eb4f60e11b81525f916001600160a01b03169063f5c9d69e90610bc4908b908b908b9088906004016117c9565b60605f5f5f5f5f5f60035f8981526020019081526020015f206040518060e00160405290815f82018054610e8290611644565b80601f0160208091040260200160405190810160405280929190818152602001828054610eae90611644565b8015610ef95780601f10610ed057610100808354040283529160200191610ef9565b820191905f5260205f20905b815481529060010190602001808311610edc57829003601f168201915b505050918352505060018201546001600160a01b0390811660208301526002830154166040820152600382015460608201526004820154608080830191909152600583015460ff16151560a083015260069092015460c0909101528101519091505f9015801590610f6d5750816080015142115b9050815f0151826020015183604001518460a0015180610f8a5750835b85608001518660c00151975097509750975097509750505091939550919395565b335f908152600460209081526040918290208054835181840281018401909452808452606093928301828280156107a457602002820191905f5260205f20905b815481526020019060010190808311610feb575050505050905090565b5f5160206118595f395f51905f5261101f816111ae565b5f8281526003602081905260408220908101549091036110815760405162461bcd60e51b815260206004820152601960248201527f43726564656e7469616c20646f6573206e6f7420657869737400000000000000604482015260640161088d565b60018101546001600160a01b03163314806110a157506110a15f33610c4d565b6110e15760405162461bcd60e51b815260206004820152601160248201527027b7363c9034b9b9bab2b917b0b236b4b760791b604482015260640161088d565b60058101805460ff19166001179055604051339084907fd3196f598a360c115a1de20d5a58021203793f1bf1a08efe55ee14545779606d905f90a3505050565b5f8281526020819052604090206001015461113b816111ae565b610582838361124a565b6001600160a01b0381165f908152600560209081526040918290208054835181840281018401909452808452606093928301828280156111a257602002820191905f5260205f20905b81548152602001906001019080831161118e575b50505050509050919050565b6111b881336112b3565b50565b5f6111c68383610c4d565b611243575f838152602081815260408083206001600160a01b03861684529091529020805460ff191660011790556111fb3390565b6001600160a01b0316826001600160a01b0316847f2f8788117e7eff1d82e926ec794901d17c78024a50270940304540a733656f0d60405160405180910390a45060016103aa565b505f6103aa565b5f6112558383610c4d565b15611243575f838152602081815260408083206001600160a01b0386168085529252808320805460ff1916905551339286917ff6391f5c32d9c69d2a47ea670b442974b53935d1edc7fd64eb21e047a839171b9190a45060016103aa565b6112bd8282610c4d565b61074a5760405163e2517d3f60e01b81526001600160a01b03821660048201526024810183905260440161088d565b60405180604001604052806002906020820280368337509192915050565b5f6020828403121561131a575f5ffd5b81356001600160e01b031981168114611331575f5ffd5b9392505050565b80356001600160a01b038116811461134e575f5ffd5b919050565b5f60208284031215611363575f5ffd5b61133182611338565b5f6020828403121561137c575f5ffd5b5035919050565b5f81518084528060208401602086015e5f602082860101526020601f19601f83011685010191505092915050565b60e081525f6113c360e083018a611383565b6001600160a01b03988916602084015296909716604082015260608101949094526080840192909252151560a083015260c09091015292915050565b5f5f60408385031215611410575f5ffd5b8235915061142060208401611338565b90509250929050565b602080825282518282018190525f918401906040840190835b818110156114695783516001600160a01b0316835260209384019390920191600101611442565b509095945050505050565b634e487b7160e01b5f52604160045260245ffd5b5f5f5f5f6080858703121561149b575f5ffd5b6114a485611338565b9350602085013567ffffffffffffffff8111156114bf575f5ffd5b8501601f810187136114cf575f5ffd5b803567ffffffffffffffff8111156114e9576114e9611474565b604051601f8201601f19908116603f0116810167ffffffffffffffff8111828210171561151857611518611474565b60405281815282820160200189101561152f575f5ffd5b816020840160208301375f91810160200191909152949794965050505060408301359260600135919050565b80604081018310156103aa575f5ffd5b5f5f5f5f5f6101408688031215611580575f5ffd5b85359450611591876020880161155b565b935060e08601878111156115a3575f5ffd5b6060870193506115b3888261155b565b9598949750929561012001359392505050565b60c081525f6115d860c0830189611383565b6001600160a01b0397881660208401529590961660408201529215156060840152608083019190915260a09091015292915050565b602080825282518282018190525f918401906040840190835b81811015611469578351835260209384019390920191600101611626565b600181811c9082168061165857607f821691505b60208210810361167657634e487b7160e01b5f52602260045260245ffd5b50919050565b634e487b7160e01b5f52603260045260245ffd5b818103818111156103aa57634e487b7160e01b5f52601160045260245ffd5b634e487b7160e01b5f52603160045260245ffd5b601f8211156105bb57805f5260205f20601f840160051c810160208510156116e85750805b601f840160051c820191505b81811015611707575f81556001016116f4565b5050505050565b815167ffffffffffffffff81111561172857611728611474565b61173c816117368454611644565b846116c3565b6020601f82116001811461176e575f83156117575750848201515b5f19600385901b1c1916600184901b178455611707565b5f84815260208120601f198516915b8281101561179d578785015182556020948501946001909201910161177d565b50848210156117ba57868401515f19600387901b60f8161c191681555b50505050600190811b01905550565b6101408101604086833760408201855f5b60028110156117fb57604082843760409283019291909101906001016117da565b50505060408460c08401376101008201835f5b600281101561182d57815183526020928301929091019060010161180e565b50505095945050505050565b5f60208284031215611849575f5ffd5b81518015158114611331575f5ffdfe114e74f6ea3bd819998f78687bfcb11b140da08e9b7d222fa9c1f1ba1f2aa122a26469706673582212204ede17348e3a64da56a2aeb2e65a0b518243668ee1df2639ef3770969583ab3e64736f6c634300081c0033",
  "linkReferences": {},
  "deployedLinkReferences": {},
  "immutableReferences": {},
  "inputSourceName": "project/contracts/CredentialRegistry.sol",
  "buildInfoId": "solc-0_8_28-0f7701f7e63349ad8182ebf262f27e4a7efd27e6"
}