{
  "_format": "hh3-artifact-1",
  "contractName": "CredentialRegistry",
  "sourceName": "contracts/CredentialRegistry.sol",
  "abi": [
    {
      "inputs": [
        {
          "internalType": "address",
          "name": "_verifierAddress",
          "type": "address"
        }
      ],
      "stateMutability": "nonpayable",
      "type": "constructor"
    },
    {
      "inputs": [],
      "name": "AccessControlBadConfirmation",
      "type": "error"
    },
    {
      "inputs": [
        {
          "internalType": "address",
          "name": "account",
          "type": "address"
        },
        {
          "internalType": "bytes32",
          "name": "neededRole",
          "type": "bytes32"
        }
      ],
      "name": "AccessControlUnauthorizedAccount",
      "type": "error"
    },
    {
      "anonymous": false,
      "inputs": [
        {
          "indexed": true,
          "internalType": "bytes32",
          "name": "credId",
          "type": "bytes32"
        },
        {
          "indexed": true,
          "internalType": "address",
          "name": "issuer",
          "type": "address"
        },
        {
          "indexed": true,
          "internalType": "address",
          "name": "holder",
          "type": "address"
        },
        {
          "indexed": false,
          "internalType": "uint256",
          "name": "validUntil",
          "type": "uint256"
        }
      ],
      "name": "CredentialIssued",
      "type": "event"
    },
    {
      "anonymous": false,
      "inputs": [
        {
          "indexed": true,
          "internalType": "bytes32",
          "name": "credId",
          "type": "bytes32"
        },
        {
          "indexed": true,
          "internalType": "address",
          "name": "revokedBy",
          "type": "address"
        }
      ],
      "name": "CredentialRevoked",
      "type": "event"
    },
    {
      "anonymous": false,
      "inputs": [
        {
          "indexed": true,
          "internalType": "address",
          "name": "issuer",
          "type": "address"
        }
      ],
      "name": "IssuerAdded",
      "type": "event"
    },
    {
      "anonymous": false,
      "inputs": [
        {
          "indexed": true,
          "internalType": "address",
          "name": "issuer",
          "type": "address"
        }
      ],
      "name": "IssuerRemoved",
      "type": "event"
    },
    {
      "anonymous": false,
      "inputs": [
        {
          "indexed": true,
          "internalType": "bytes32",
          "name": "credId",
          "type": "bytes32"
        },
        {
          "indexed": false,
          "internalType": "bool",
          "name": "success",
          "type": "bool"
        }
      ],
      "name": "ProofVerified",
      "type": "event"
    },
    {
      "anonymous": false,
      "inputs": [
        {
          "indexed": true,
          "internalType": "bytes32",
          "name": "role",
          "type": "bytes32"
        },
        {
          "indexed": true,
          "internalType": "bytes32",
          "name": "previousAdminRole",
          "type": "bytes32"
        },
        {
          "indexed": true,
          "internalType": "bytes32",
          "name": "newAdminRole",
          "type": "bytes32"
        }
      ],
      "name": "RoleAdminChanged",
      "type": "event"
    },
    {
      "anonymous": false,
      "inputs": [
        {
          "indexed": true,
          "internalType": "bytes32",
          "name": "role",
          "type": "bytes32"
        },
        {
          "indexed": true,
          "internalType": "address",
          "name": "account",
          "type": "address"
        },
        {
          "indexed": true,
          "internalType": "address",
          "name": "sender",
          "type": "address"
        }
      ],
      "name": "RoleGranted",
      "type": "event"
    },
    {
      "anonymous": false,
      "inputs": [
        {
          "indexed": true,
          "internalType": "bytes32",
          "name": "role",
          "type": "bytes32"
        },
        {
          "indexed": true,
          "internalType": "address",
          "name": "account",
          "type": "address"
        },
        {
          "indexed": true,
          "internalType": "address",
          "name": "sender",
          "type": "address"
        }
      ],
      "name": "RoleRevoked",
      "type": "event"
    },
    {
      "inputs": [],
      "name": "DEFAULT_ADMIN_ROLE",
      "outputs": [
        {
          "internalType": "bytes32",
          "name": "",
          "type": "bytes32"
        }
      ],
      "stateMutability": "view",
      "type": "function"
    },
    {
      "inputs": [],
      "name": "ISSUER_ROLE",
      "outputs": [
        {
          "internalType": "bytes32",
          "name": "",
          "type": "bytes32"
        }
      ],
      "stateMutability": "view",
      "type": "function"
    },
    {
      "inputs": [
        {
          "internalType": "address",
          "name": "_issuer",
          "type": "address"
        }
      ],
      "name": "addIssuer",
      "outputs": [],
      "stateMutability": "nonpayable",
      "type": "function"
    },
    {
      "inputs": [
        {
          "internalType": "bytes32",
          "name": "",
          "type": "bytes32"
        }
      ],
      "name": "credentials",
      "outputs": [
        {
          "internalType": "string",
          "name": "ipfsHash",
          "type": "string"
        },
        {
          "internalType": "address",
          "name": "issuer",
          "type": "address"
        },
        {
          "internalType": "address",
          "name": "holder",
          "type": "address"
        },
        {
          "internalType": "uint256",
          "name": "issuanceDate",
          "type": "uint256"
        },
        {
          "internalType": "uint256",
          "name": "validUntil",
          "type": "uint256"
        },
        {
          "internalType": "bool",
          "name": "isRevoked",
          "type": "bool"
        },
        {
          "internalType": "bytes32",
          "name": "commitment",
          "type": "bytes32"
        }
      ],
      "stateMutability": "view",
      "type": "function"
    },
    {
      "inputs": [
        {
          "internalType": "bytes32",
          "name": "_credId",
          "type": "bytes32"
        }
      ],
      "name": "fetchCredential",
      "outputs": [
        {
          "internalType": "string",
          "name": "",
          "type": "string"
        },
        {
          "internalType": "address",
          "name": "",
          "type": "address"
        },
        {
          "internalType": "address",
          "name": "",
          "type": "address"
        },
        {
          "internalType": "bool",
          "name": "",
          "type": "bool"
        },
        {
          "internalType": "uint256",
          "name": "",
          "type": "uint256"
        },
        {
          "internalType": "bytes32",
          "name": "",
          "type": "bytes32"
        }
      ],
      "stateMutability": "view",
      "type": "function"
    },
    {
      "inputs": [],
      "name": "getAllIssuers",
      "outputs": [
        {
          "internalType": "address[]",
          "name": "",
          "type": "address[]"
        }
      ],
      "stateMutability": "view",
      "type": "function"
    },
    {
      "inputs": [
        {
          "internalType": "address",
          "name": "_issuer",
          "type": "address"
        }
      ],
      "name": "getIssuedCredentials",
      "outputs": [
        {
          "internalType": "bytes32[]",
          "name": "",
          "type": "bytes32[]"
        }
      ],
      "stateMutability": "view",
      "type": "function"
    },
    {
      "inputs": [],
      "name": "getMyCredentials",
      "outputs": [
        {
          "internalType": "bytes32[]",
          "name": "",
          "type": "bytes32[]"
        }
      ],
      "stateMutability": "view",
      "type": "function"
    },
    {
      "inputs": [
        {
          "internalType": "bytes32",
          "name": "role",
          "type": "bytes32"
        }
      ],
      "name": "getRoleAdmin",
      "outputs": [
        {
          "internalType": "bytes32",
          "name": "",
          "type": "bytes32"
        }
      ],
      "stateMutability": "view",
      "type": "function"
    },
    {
      "inputs": [
        {
          "internalType": "bytes32",
          "name": "role",
          "type": "bytes32"
        },
        {
          "internalType": "address",
          "name": "account",
          "type": "address"
        }
      ],
      "name": "grantRole",
      "outputs": [],
      "stateMutability": "nonpayable",
      "type": "function"
    },
    {
      "inputs": [
        {
          "internalType": "bytes32",
          "name": "role",
          "type": "bytes32"
        },
        {
          "internalType": "address",
          "name": "account",
          "type": "address"
        }
      ],
      "name": "hasRole",
      "outputs": [
        {
          "internalType": "bool",
          "name": "",
          "type": "bool"
        }
      ],
      "stateMutability": "view",
      "type": "function"
    },
    {
      "inputs": [
        {
          "internalType": "address",
          "name": "",
          "type": "address"
        }
      ],
      "name": "isIssuer",
      "outputs": [
        {
          "internalType": "bool",
          "name": "",
          "type": "bool"
        }
      ],
      "stateMutability": "view",
      "type": "function"
    },
    {
      "inputs": [
        {
          "internalType": "address",
          "name": "_holder",
          "type": "address"
        },
        {
          "internalType": "string",
          "name": "_ipfsHash",
          "type": "string"
        },
        {
          "internalType": "uint256",
          "name": "_validUntil",
          "type": "uint256"
        },
        {
          "internalType": "bytes32",
          "name": "_commitment",
          "type": "bytes32"
        }
      ],
      "name": "issueCredential",
      "outputs": [
        {
          "internalType": "bytes32",
          "name": "",
          "type": "bytes32"
        }
      ],
      "stateMutability": "nonpayable",
      "type": "function"
    },
    {
      "inputs": [
        {
          "internalType": "uint256",
          "name": "",
          "type": "uint256"
        }
      ],
      "name": "issuerList",
      "outputs": [
        {
          "internalType": "address",
          "name": "",
          "type": "address"
        }
      ],
      "stateMutability": "view",
      "type": "function"
    },
    {
      "inputs": [
        {
          "internalType": "address",
          "name": "_issuer",
          "type": "address"
        }
      ],
      "name": "removeIssuer",
      "outputs": [],
      "stateMutability": "nonpayable",
      "type": "function"
    },
    {
      "inputs": [
        {
          "internalType": "bytes32",
          "name": "role",
          "type": "bytes32"
        },
        {
          "internalType": "address",
          "name": "callerConfirmation",
          "type": "address"
        }
      ],
      "name": "renounceRole",
      "outputs": [],
      "stateMutability": "nonpayable",
      "type": "function"
    },
    {
      "inputs": [
        {
          "internalType": "bytes32",
          "name": "credId",
          "type": "bytes32"
        }
      ],
      "name": "revokeCredential",
      "outputs": [],
      "stateMutability": "nonpayable",
      "type": "function"
    },
    {
      "inputs": [
        {
          "internalType": "bytes32",
          "name": "role",
          "type": "bytes32"
        },
        {
          "internalType": "address",
          "name": "account",
          "type": "address"
        }
      ],
      "name": "revokeRole",
      "outputs": [],
      "stateMutability": "nonpayable",
      "type": "function"
    },
    {
      "inputs": [
        {
          "internalType": "bytes4",
          "name": "interfaceId",
          "type": "bytes4"
        }
      ],
      "name": "supportsInterface",
      "outputs": [
        {
          "internalType": "bool",
          "name": "",
          "type": "bool"
        }
      ],
      "stateMutability": "view",
      "type": "function"
    },
    {
      "inputs": [],
      "name": "verifier",
      "outputs": [
        {
          "internalType": "contract IGroth16Verifier",
          "name": "",
          "type": "address"
        }
      ],
      "stateMutability": "view",
      "type": "function"
    },
    {
      "inputs": [
        {
          "internalType": "bytes32",
          "name": "_credId",
          "type": "bytes32"
        },
        {
          "internalType": "uint256[2]",
          "name": "_pA",
          "type": "uint256[2]"
        },
        {
          "internalType": "uint256[2][2]",
          "name": "_pB",
          "type": "uint256[2][2]"
        },
        {
          "internalType": "uint256[2]",
          "name": "_pC",
          "type": "uint256[2]"
        },
        {
          "internalType": "uint256",
          "name": "_thresholdDate",
          "type": "uint256"
        }
      ],
      "name": "verifyAge",
      "outputs": [
        {
          "internalType": "bool",
          "name": "",
          "type": "bool"
        }
      ],
      "stateMutability": "nonpayable",
      "type": "function"
    }
  ],
  "bytecode": "0x608060405234801561000f575f5ffd5b5060405161185838038061185883398101604081905261002e91610189565b600180546001600160a01b0319166001600160a01b0383161790556100535f336100e0565b5061007e7f114e74f6ea3bd819998f78687bfcb11b140da08e9b7d222fa9c1f1ba1f2aa122336100e0565b5050335f818152600560205260408120805460ff191660019081179091556006805491820181559091527ff652222313e28459528d920b65115c16c04f3efc82aaedc97be59f3f377c0d3f0180546001600160a01b03191690911790556101b6565b5f828152602081815260408083206001600160a01b038516845290915281205460ff16610180575f838152602081815260408083206001600160a01b03861684529091529020805460ff191660011790556101383390565b6001600160a01b0316826001600160a01b0316847f2f8788117e7eff1d82e926ec794901d17c78024a50270940304540a733656f0d60405160405180910390a4506001610183565b505f5b92915050565b5f60208284031215610199575f5ffd5b81516001600160a01b03811681146101af575f5ffd5b9392505050565b611695806101c35f395ff3fe608060405234801561000f575f5ffd5b5060043610610132575f3560e01c806355a2578d116100b4578063ab20173311610079578063ab201733146102b8578063ab22845b146102cb578063bbfbb2ec146102f0578063ca6eec7814610305578063d547741f14610318578063ff2a9af91461032b575f5ffd5b806355a2578d1461025557806382aefa2414610268578063877b9a671461027c57806391d148541461029e578063a217fddf146102b1575f5ffd5b80632f2ff15d116100fa5780632f2ff15d146101f457806336568abe1461020757806347bc70931461021a5780634c32c35c1461022d57806353be56be14610242575f5ffd5b806301ffc9a71461013657806320694db01461015e578063248a9ca314610173578063299d0348146101a35780632b7ac3f3146101c9575b5f5ffd5b6101496101443660046110f1565b61033e565b60405190151581526020015b60405180910390f35b61017161016c36600461113a565b610374565b005b610195610181366004611153565b5f9081526020819052604090206001015490565b604051908152602001610155565b6101b66101b1366004611153565b610450565b6040516101559796959493929190611198565b6001546101dc906001600160a01b031681565b6040516001600160a01b039091168152602001610155565b6101716102023660046111e6565b610522565b6101716102153660046111e6565b61054c565b61017161022836600461113a565b610584565b610235610712565b6040516101559190611210565b6101dc610250366004611153565b610772565b61019561026336600461126f565b61079a565b6101955f5160206116405f395f51905f5281565b61014961028a36600461113a565b60056020525f908152604090205460ff1681565b6101496102ac3660046111e6565b6109ac565b6101955f81565b6101496102c6366004611352565b6109d4565b6102de6102d9366004611153565b610c37565b604051610155969594939291906113ad565b6102f8610d93565b60405161015591906113f4565b610171610313366004611153565b610df0565b6101716103263660046111e6565b610f08565b6102f861033936600461113a565b610f2c565b5f6001600160e01b03198216637965db0b60e01b148061036e57506301ffc9a760e01b6001600160e01b03198316145b92915050565b5f61037e81610f95565b6103955f5160206116405f395f51905f5283610522565b6001600160a01b0382165f9081526005602052604090205460ff16610419576001600160a01b0382165f818152600560205260408120805460ff191660019081179091556006805491820181559091527ff652222313e28459528d920b65115c16c04f3efc82aaedc97be59f3f377c0d3f0180546001600160a01b03191690911790555b6040516001600160a01b038316907f05e7c881d716bee8cb7ed92293133ba156704252439e5c502c277448f04e20c2905f90a25050565b60026020525f908152604090208054819061046a9061142b565b80601f01602080910402602001604051908101604052809291908181526020018280546104969061142b565b80156104e15780601f106104b8576101008083540402835291602001916104e1565b820191905f5260205f20905b8154815290600101906020018083116104c457829003601f168201915b5050506001840154600285015460038601546004870154600588015460069098015496976001600160a01b03948516979390941695509093509160ff169087565b5f8281526020819052604090206001015461053c81610f95565b6105468383610fa2565b50505050565b6001600160a01b03811633146105755760405163334bd91960e11b815260040160405180910390fd5b61057f8282611031565b505050565b5f61058e81610f95565b6105a55f5160206116405f395f51905f5283610f08565b6001600160a01b0382165f9081526005602052604090205460ff161561070e576001600160a01b0382165f908152600560205260408120805460ff191690555b6006548110156106d957826001600160a01b03166006828154811061060c5761060c611463565b5f918252602090912001546001600160a01b0316036106d1576006805461063590600190611477565b8154811061064557610645611463565b5f91825260209091200154600680546001600160a01b03909216918390811061067057610670611463565b905f5260205f20015f6101000a8154816001600160a01b0302191690836001600160a01b0316021790555060068054806106ac576106ac611496565b5f8281526020902081015f1990810180546001600160a01b03191690550190556106d9565b6001016105e5565b506040516001600160a01b038316907faf66545c919a3be306ee446d8f42a9558b5b022620df880517bc9593ec0f2d52905f90a25b5050565b6060600680548060200260200160405190810160405280929190818152602001828054801561076857602002820191905f5260205f20905b81546001600160a01b0316815260019091019060200180831161074a575b5050505050905090565b60068181548110610781575f80fd5b5f918252602090912001546001600160a01b0316905081565b5f5f5160206116405f395f51905f526107b281610f95565b6040805142602082018190526001600160a01b038916928201929092523360608201525f9060800160408051601f1981840301815291815281516020928301205f8181526002909352912060030154909150156108565760405162461bcd60e51b815260206004820152601960248201527f43726564656e7469616c20616c7265616479206578697374730000000000000060448201526064015b60405180910390fd5b6040805160e081018252888152336020808301919091526001600160a01b038b168284015260608201859052608082018990525f60a0830181905260c08301899052848152600290915291909120815181906108b290826114f5565b50602082810151600183810180546001600160a01b03199081166001600160a01b0394851617909155604080870151600287018054909316908516179091556060860151600380870191909155608087015160048088019190915560a088015160058801805460ff191691151591909117905560c090970151600690960195909555918d165f81815294845282852080548084018255908652848620018790553380865295845282852080549283018155855293839020018590555189815291929184917fc6f6a1702b44006e35bd83045fd933510f3a924c1bb3877bff1061c14eb1c6be910160405180910390a4979650505050505050565b5f918252602082815260408084206001600160a01b0393909316845291905290205460ff1690565b5f85815260026020526040808220815160e08101909252805483929190829082906109fe9061142b565b80601f0160208091040260200160405190810160405280929190818152602001828054610a2a9061142b565b8015610a755780601f10610a4c57610100808354040283529160200191610a75565b820191905f5260205f20905b815481529060010190602001808311610a5857829003601f168201915b505050918352505060018201546001600160a01b0390811660208301526002830154166040820152600382015460608083019190915260048301546080830152600583015460ff16151560a083015260069092015460c0909101528101519091505f03610b1b5760405162461bcd60e51b815260206004820152601460248201527310dc9959195b9d1a585b081b9bdd08199bdd5b9960621b604482015260640161084d565b8060a0015115610b625760405162461bcd60e51b815260206004820152601260248201527110dc9959195b9d1a585b081c995d9bdad95960721b604482015260640161084d565b610b6a6110d3565b60c0820151815260208101849052600154604051637ae4eb4f60e11b81525f916001600160a01b03169063f5c9d69e90610bae908b908b908b9088906004016115b0565b602060405180830381865afa158015610bc9573d5f5f3e3d5ffd5b505050506040513d601f19601f82011682018060405250810190610bed9190611620565b9050887ff8ea4b84d199e84ff35249e26840ceba1b2a1711d50a01b47e9817370117218082604051610c23911515815260200190565b60405180910390a298975050505050505050565b60605f5f5f5f5f5f60025f8981526020019081526020015f206040518060e00160405290815f82018054610c6a9061142b565b80601f0160208091040260200160405190810160405280929190818152602001828054610c969061142b565b8015610ce15780601f10610cb857610100808354040283529160200191610ce1565b820191905f5260205f20905b815481529060010190602001808311610cc457829003601f168201915b505050918352505060018201546001600160a01b0390811660208301526002830154166040820152600382015460608201526004820154608080830191909152600583015460ff16151560a083015260069092015460c0909101528101519091505f9015801590610d555750816080015142115b9050815f0151826020015183604001518460a0015180610d725750835b85608001518660c00151975097509750975097509750505091939550919395565b335f9081526003602090815260409182902080548351818402810184019094528084526060939283018282801561076857602002820191905f5260205f20905b815481526020019060010190808311610dd3575050505050905090565b5f5160206116405f395f51905f52610e0781610f95565b5f8281526002602052604081206003810154909103610e685760405162461bcd60e51b815260206004820152601960248201527f43726564656e7469616c20646f6573206e6f7420657869737400000000000000604482015260640161084d565b60018101546001600160a01b0316331480610e885750610e885f336109ac565b610ec85760405162461bcd60e51b815260206004820152601160248201527027b7363c9034b9b9bab2b917b0b236b4b760791b604482015260640161084d565b60058101805460ff19166001179055604051339084907fd3196f598a360c115a1de20d5a58021203793f1bf1a08efe55ee14545779606d905f90a3505050565b5f82815260208190526040902060010154610f2281610f95565b6105468383611031565b6001600160a01b0381165f90815260046020908152604091829020805483518184028101840190945280845260609392830182828015610f8957602002820191905f5260205f20905b815481526020019060010190808311610f75575b50505050509050919050565b610f9f813361109a565b50565b5f610fad83836109ac565b61102a575f838152602081815260408083206001600160a01b03861684529091529020805460ff19166001179055610fe23390565b6001600160a01b0316826001600160a01b0316847f2f8788117e7eff1d82e926ec794901d17c78024a50270940304540a733656f0d60405160405180910390a450600161036e565b505f61036e565b5f61103c83836109ac565b1561102a575f838152602081815260408083206001600160a01b0386168085529252808320805460ff1916905551339286917ff6391f5c32d9c69d2a47ea670b442974b53935d1edc7fd64eb21e047a839171b9190a450600161036e565b6110a482826109ac565b61070e5760405163e2517d3f60e01b81526001600160a01b03821660048201526024810183905260440161084d565b60405180604001604052806002906020820280368337509192915050565b5f60208284031215611101575f5ffd5b81356001600160e01b031981168114611118575f5ffd5b9392505050565b80356001600160a01b0381168114611135575f5ffd5b919050565b5f6020828403121561114a575f5ffd5b6111188261111f565b5f60208284031215611163575f5ffd5b5035919050565b5f81518084528060208401602086015e5f602082860101526020601f19601f83011685010191505092915050565b60e081525f6111aa60e083018a61116a565b6001600160a01b03988916602084015296909716604082015260608101949094526080840192909252151560a083015260c09091015292915050565b5f5f604083850312156111f7575f5ffd5b823591506112076020840161111f565b90509250929050565b602080825282518282018190525f918401906040840190835b818110156112505783516001600160a01b0316835260209384019390920191600101611229565b509095945050505050565b634e487b7160e01b5f52604160045260245ffd5b5f5f5f5f60808587031215611282575f5ffd5b61128b8561111f565b9350602085013567ffffffffffffffff8111156112a6575f5ffd5b8501601f810187136112b6575f5ffd5b803567ffffffffffffffff8111156112d0576112d061125b565b604051601f8201601f19908116603f0116810167ffffffffffffffff811182821017156112ff576112ff61125b565b604052818152828201602001891015611316575f5ffd5b816020840160208301375f91810160200191909152949794965050505060408301359260600135919050565b806040810183101561036e575f5ffd5b5f5f5f5f5f6101408688031215611367575f5ffd5b853594506113788760208801611342565b935060e086018781111561138a575f5ffd5b60608701935061139a8882611342565b9598949750929561012001359392505050565b60c081525f6113bf60c083018961116a565b6001600160a01b0397881660208401529590961660408201529215156060840152608083019190915260a09091015292915050565b602080825282518282018190525f918401906040840190835b8181101561125057835183526020938401939092019160010161140d565b600181811c9082168061143f57607f821691505b60208210810361145d57634e487b7160e01b5f52602260045260245ffd5b50919050565b634e487b7160e01b5f52603260045260245ffd5b8181038181111561036e57634e487b7160e01b5f52601160045260245ffd5b634e487b7160e01b5f52603160045260245ffd5b601f82111561057f57805f5260205f20601f840160051c810160208510156114cf5750805b601f840160051c820191505b818110156114ee575f81556001016114db565b5050505050565b815167ffffffffffffffff81111561150f5761150f61125b565b6115238161151d845461142b565b846114aa565b6020601f821160018114611555575f831561153e5750848201515b5f19600385901b1c1916600184901b1784556114ee565b5f84815260208120601f198516915b828110156115845787850151825560209485019460019092019101611564565b50848210156115a157868401515f19600387901b60f8161c191681555b50505050600190811b01905550565b6101408101604086833760408201855f5b60028110156115e257604082843760409283019291909101906001016115c1565b50505060408460c08401376101008201835f5b60028110156116145781518352602092830192909101906001016115f5565b50505095945050505050565b5f60208284031215611630575f5ffd5b81518015158114611118575f5ffdfe114e74f6ea3bd819998f78687bfcb11b140da08e9b7d222fa9c1f1ba1f2aa122a264697066735822122076413ab543436ffc927c014a083b8eac0554817f9c6ae9cae4c9fcb18476583264736f6c634300081c0033",
  "linkReferences": {},
  "deployedLinkReferences": {},
  "immutableReferences": {},
  "inputSourceName": "project/contracts/CredentialRegistry.sol",
  "buildInfoId": "solc-0_8_28-e3e6428bcdc6e6b0771e8f6e3cbdde36a9e5d924"
}